:020000040800F2
:1000000000500020FD0A00082D0A0008350A0008EB
:100010003D0A0008450A00084D0A000800000000DB
:10002000000000000000000000000000550A000869
:10003000610A0008000000006D0A0008790A000843
:10004000450B0008450B0008450B0008450B000850
:10005000450B0008450B0008450B0008450B000840
:10006000450B0008450B0008450B0008450B000830
:10007000450B0008450B0008450B0008450B000820
:10008000450B0008450B0008450B0008450B000810
:10009000450B0008450B0008450B0008450B000800
:1000A000450B0008450B0008450B0008450B0008F0
:1000B000450B0008450B0008450B0008450B0008E0
:1000C000450B0008450B0008450B0008450B0008D0
:1000D000450B0008450B0008450B0008450B0008C0
:1000E000450B0008450B0008450B00080000000008
:1000F0000000000000000000000000000000000000
:0C01000000000000000000005FF808F1A3
:10010C0010B5054C237833B9044B13B10448AFF345
:10011C0000800123237010BD60000020000000004F
:10012C008C34000808B5034B1BB103490348AFF3EB
:10013C00008008BD00000000640000208C34000822
:10014C00034613F8012B002AFBD1181A013870470B
:10015C0080B586B002AF78600B46FB707B68186880
:10016C0007F10F02F91C4FF0FF330093012301F04C
:10017C0099FCFB7B18461037BD4680BD80B582B01C
:10018C0000AF78600B46FB701346BB707B68D86879
:10019C007B681B8A0022194600F0BEFFFB7843F0F7
:1001AC002003DBB219467868FFF7D2FFBB781946FB
:1001BC007868FFF7CDFF7B68D8687B681B8A0122C3
:1001CC00194600F0A9FF00BF0837BD4680BD80B5B9
:1001DC0084B000AF78600B46FB707B68D8687B6896
:1001EC001B8A0022194600F097FFFB7819467868A5
:1001FC00FFF7AEFFFF217868FFF7AAFF0346FB73FA
:10020C007B68D8687B681B8A0122194600F084FF42
:10021C00FB7B18461037BD4680BD80B586B000AF5D
:10022C00F8607A601A460B46FB721346BB72FB6889
:10023C00D868FB681B8A0022194600F06DFFFB7A18
:10024C0043F02003DBB21946F868FFF781FF002367
:10025C007B610AE07B697A6813441B781946F8685D
:10026C00FFF776FF7B6901337B61BB7A7A699A422F
:10027C00F0DBFB68D868FB681B8A0122194600F08A
:10028C004BFF00BF1837BD4680BD000080B584B061
:10029C0000AF78607B6858687B681B890022194620
:1002AC0000F03AFF052000F0ABFC0F22002178682B
:1002BC00FFF764FF4C2205217868FFF75FFF0622E9
:1002CC0006217868FFF75AFF032203217868FFF7AD
:1002DC0055FF012201217868FFF750FF012202210E
:1002EC007868FFF74BFF202211217868FFF746FF53
:1002FC000D4A07F1080392E80300186004331970E3
:10030C0007F1080205230A217868FFF786FF7B684E
:10031C0058687B681B890122194600F0FDFE00BF5E
:10032C001037BD4680BD00BFA434000890B587B01F
:10033C0000AFF860B9601346FB710721F868FFF74E
:10034C0046FF0346FB74FB7C03F04003002B2DD0CF
:10035C00FB68D868FB681B8A0022194600F0DCFE9B
:10036C006121F868FFF7F4FE00237B610BE07B69E9
:10037C00BA68D418FF21F868FFF7EAFE0346237029
:10038C007B6901337B61FB797A699A42EFDBFB680D
:10039C00D868FB681B8A0122194600F0BDFE40227A
:1003AC000721F868FFF7EAFE012300E00023184656
:1003BC001C37BD4690BD80B584B000AF78600B464D
:1003CC007B8013467B707B78002B0DD07B88194685
:1003DC00786800F0B9FEC82000F012FC7B88194642
:1003EC00786800F0B1FE18E00023FB6012E07B8817
:1003FC001946786800F0A8FE642000F001FC7B88A8
:10040C001946786800F0A0FE642000F0F9FBFB6848
:10041C000133FB60FB68022BE9DD00BF1037BD46E2
:10042C0080BD000080B59AB000AF00F087FB00F0F3
:10043C0057F800F075F900F08FF800F0C3F800F0F1
:10044C0045F91F4B1F4A1A601D4B1F4A5A601C4B23
:10045C0008221A811A4B1C4ADA60194B10221A8294
:10046C001748FFF713FF012218491548FFF75EFFE5
:10047C0003461A46164B1A70154B1B781A464FF446
:10048C0000511448FFF797FF4FF47A7000F0B8FB57
:10049C000F4B1B781A460D4B1B78381D0E4902F07A
:1004AC003FFB3B1D1846FFF74BFE03469AB2391D26
:1004BC004FF0FF33094802F05EF900BFD3E700BFED
:1004CC00640100207C000020000801400000002096
:1004DC000100002000100140AC3400081C01002079
:1004EC0080B590B000AF07F1180328220021184600
:1004FC0002F038FB3B1D00221A605A609A60DA60E9
:10050C001A610223BB610123BB621023FB6200232F
:10051C007B6307F11803184600F030FE0346002BEE
:10052C0001D000F05DF90F237B600023BB6000233A
:10053C00FB6000233B6100237B613B1D00211846BF
:10054C0001F09EF80346002B01D000F049F900BFE2
:10055C004037BD4680BD000080B500AF174B184A30
:10056C001A60164B4FF482725A60144B00229A6038
:10057C00124B0022DA60114B00221A610F4B002241
:10058C005A610E4B4FF400729A610C4B0022DA61E7
:10059C000A4B00221A62094B00225A62074B0022B6
:1005AC009A62064B0A22DA62044801F0F7F9034614
:1005BC00002B01D000F014F900BF80BD7C0000209E
:1005CC000030014080B592B000AF07F1400300222B
:1005DC001A605A6007F1240300221A605A609A606C
:1005EC00DA601A615A619A613B1D2022002118467B
:1005FC0002F0B8FA334B344A1A60324B07225A6075
:10060C00304B00229A602F4B4FF6FF72DA602D4B65
:10061C0000221A612B4B00225A612A4B00229A614C
:10062C00284801F0A2FC0346002B01D000F0D8F8BA
:10063C0000233B6400237B6407F1400319462148E7
:10064C0001F09AFF0346002B01D000F0C9F860239B
:10065C007B620023BB620023FB6200233B6300230D
:10066C007B630023BB630023FB6307F1240300229D
:10067C001946144801F0C8FC0346002B01D000F0C9
:10068C00AFF800237B600023BB600023FB600023DA
:10069C003B6100237B614FF40053BB6100233B6241
:1006AC003B1D1946074801F0C5FF0346002B01D03E
:1006BC0000F096F8034800F033F900BF4837BD4608
:1006CC0080BD00BFD4000020002C014080B500AFDD
:1006DC00114B124A1A60104B4FF4E1325A600E4B18
:1006EC0000229A600C4B0022DA600B4B00221A613C
:1006FC00094B0C225A61084B00229A61064B0022CE
:10070C00DA61054801F0E7FF0346002B01D000F049
:10071C0067F800BF80BD00BF1C01002000380140FD
:10072C0080B588B000AF07F1100300221A605A6040
:10073C009A60DA60274B9B69264A43F01003936159
:10074C00244B9B6903F01003FB60FB68214B9B69F6
:10075C00204A43F0200393611E4B9B6903F0200356
:10076C00BB60BB681B4B9B691A4A43F00403936143
:10077C00184B9B6903F004037B607B6800224FF4E9
:10078C000051154800F0C8FC00221821134800F055
:10079C00C3FC4FF400533B6101237B610023BB611D
:1007AC000223FB6107F1100319460B4800F030FBE4
:1007BC0018233B6101237B610023BB610223FB6196
:1007CC0007F110031946054800F022FB00BF203743
:1007DC00BD4680BD001002400010014000080140E1
:1007EC0080B400AF72B600BF00BFFDE780B485B027
:1007FC0000AF154B9B69144A43F001039361124BF4
:10080C009B6903F00103BB60BB680F4BDB690E4AAD
:10081C0043F08053D3610C4BDB6903F080537B6056
:10082C007B680A4B5B68FB60FB6823F0E063FB6052
:10083C00FB6843F00073FB60044AFB68536000BF25
:10084C001437BD4680BC70470010024000000140C8
:10085C0080B588B000AF786007F1100300221A60F1
:10086C005A609A60DA607B681B681B4A93422FD1EE
:10087C001A4B9B69194A43F480539361174B9B693C
:10088C0003F48053FB60FB68144B9B69134A43F0E1
:10089C0004039361114B9B6903F00403BB60BB68B9
:1008AC00A0233B6102237B610323FB6107F110034F
:1008BC0019460B4800F0ACFA40233B6100237B61E6
:1008CC000023BB6107F110031946054800F0A0FA9C
:1008DC0000BF2037BD4680BD0030014000100240F3
:1008EC000008014080B485B000AF78607B681B685D
:1008FC00094A93420BD1094B9B69084A43F40063A4
:10090C009361064B9B6903F40063FB60FB6800BFBB
:10091C001437BD4680BC7047002C014000100240CB
:10092C0080B588B000AF786007F1100300221A6020
:10093C005A609A60DA607B681B68104A934218D13F
:10094C000F4B9B690E4A43F0040393610C4B9B695C
:10095C0003F00403FB60FB684FF480733B610223DC
:10096C007B610223FB6107F110031946054800F077
:10097C004FFA00BF2037BD4680BD00BF002C0140A0
:10098C00001002400008014080B588B000AF7860CC
:10099C0007F1100300221A605A609A60DA607B68D3
:1009AC001B681C4A934231D11B4B9B691A4A43F476
:1009BC0080439361184B9B6903F48043FB60FB6895
:1009CC00154B9B69144A43F004039361124B9B69CA
:1009DC0003F00403BB60BB684FF400733B6102235C
:1009EC007B610323FB6107F1100319460B4800F0F0
:1009FC000FFA4FF480633B6100237B610023BB61E2
:100A0C0007F110031946054800F002FA00BF203721
:100A1C00BD4680BD00380140001002400008014076
:100A2C0080B400AF00BFFDE780B400AF00BFFDE7AE
:100A3C0080B400AF00BFFDE780B400AF00BFFDE79E
:100A4C0080B400AF00BFFDE780B400AF00BFBD466F
:100A5C0080BC704780B400AF00BFBD4680BC7047FF
:100A6C0080B400AF00BFBD4680BC704780B500AFFE
:100A7C0000F0AAF800BF80BD80B586B000AF7860EA
:100A8C00144A154BD31A7B617B693B61134B1B6872
:100A9C00002B02D1114B124A1A60104B1A687B685A
:100AAC0013443A699A4207D202F064F803460C22C6
:100ABC001A604FF0FF3309E0084B1B68FB60074BD3
:100ACC001A687B681344054A1360FB68184618378C
:100ADC00BD4680BD005000200004000078010020BD
:100AEC00C802002080B400AF00BFBD4680BC704778
:100AFC00FFF7F8FF0B480C490C4A002302E0D458CE
:100B0C00C4500433C4188C42F9D3094A094C00234D
:100B1C0001E013600432A242FBD302F031F8FFF77C
:100B2C0081FC704700000020600000203C3500086C
:100B3C0060000020C8020020FEE7000080B500AF76
:100B4C00084B1B68074A43F010031360032000F0A6
:100B5C002BF90F2000F008F8FFF748FE0023184689
:100B6C0080BD00BF0020024080B582B000AF78602D
:100B7C00124B1A68124B1B7819464FF47A73B3FB5D
:100B8C00F1F3B2FBF3F3184600F035F90346002BF2
:100B9C0001D001230EE07B680F2B0AD80022796864
:100BAC004FF0FF3000F00BF9064A7B68136000230E
:100BBC0000E0012318460837BD4680BD0400002024
:100BCC000C0000200800002080B400AF054B1B78FF
:100BDC001A46054B1B681344034A136000BFBD46FD
:100BEC0080BC70470C0000207C01002080B400AF5A
:100BFC00024B1B681846BD4680BC70477C01002028
:100C0C0080B584B000AF7860FFF7F0FFB8607B6808
:100C1C00FB60FB68B3F1FF3F05D00A4B1B781A460B
:100C2C00FB681344FB6000BFFFF7E0FF0246BB68A4
:100C3C00D31AFA689A42F7D800BF00BF1037BD46E6
:100C4C0080BD00BF0C00002080B485B000AF786080
:100C5C007B6803F00703FB600C4BDB68BB60BA6876
:100C6C004FF6FF031340BB60FB681A02BB681343CB
:100C7C0043F0BF6343F40033BB60044ABB68D360EA
:100C8C0000BF1437BD4680BC704700BF00ED00E0CC
:100C9C0080B400AF044BDB681B0A03F00703184653
:100CAC00BD4680BC704700BF00ED00E080B483B04F
:100CBC0000AF03463960FB7197F90730002B0ADB54
:100CCC003B68DAB20C4997F907301201D2B20B44E7
:100CDC0083F800230AE03B68DAB20849FB7903F099
:100CEC000F03043B1201D2B20B441A7600BF0C372F
:100CFC00BD4680BC704700BF00E100E000ED00E0A5
:100D0C0080B489B000AFF860B9607A60FB6803F01A
:100D1C000703FB61FB69C3F10703042B28BF042302
:100D2C00BB61FB690433062B02D9FB69033B00E072
:100D3C0000237B614FF0FF32BB6902FA03F3DA4305
:100D4C00BB681A407B699A404FF0FF317B6901FA0E
:100D5C0003F3D9437B680B40134318462437BD4635
:100D6C0080BC704780B582B000AF78607B68013B77
:100D7C00B3F1807F01D301230FE00A4A7B68013B6A
:100D8C0053600F214FF0FF30FFF790FF054B00220F
:100D9C009A60044B07221A60002318460837BD4698
:100DAC0080BD00BF10E000E080B582B000AF78607D
:100DBC007868FFF749FF00BF0837BD4680BD80B596
:100DCC0086B000AF0346B9607A60FB7300237B6189
:100DDC00FFF75EFF78617A68B9687869FFF790FF72
:100DEC00024697F90F3011461846FFF75FFF00BF18
:100DFC001837BD4680BD80B582B000AF786078688A
:100E0C00FFF7B0FF034618460837BD4680BD00000B
:100E1C0080B48BB000AF7860396000237B62002314
:100E2C003B6269E101227B6A02FA03F3FB613B68D6
:100E3C001B68FA691340BB61BA69FB699A4240F0BE
:100E4C0058813B685B689A4A93425ED0984A9342B9
:100E5C0075D8984A934258D0964A93426FD8964A7E
:100E6C00934252D0944A934269D8944A93424CD0BC
:100E7C00924A934263D8924A934246D0904A934204
:100E8C005DD8122B2AD8122B59D801A252F823F074
:100E9C00170F0008F10E0008030F0008450F00089B
:100EAC004B0F00084B0F00084B0F00084B0F0008AE
:100EBC004B0F00084B0F00084B0F00084B0F00089E
:100ECC004B0F00084B0F00084B0F00084B0F00088E
:100EDC004B0F0008F90E00080D0F0008794A9342D9
:100EEC0013D02CE03B68DB683B6229E03B68DB6895
:100EFC0004333B6224E03B68DB6808333B621FE051
:100F0C003B68DB680C333B621AE03B689B68002B48
:100F1C0002D104233B6213E03B689B68012B05D193
:100F2C0008233B627B68FA691A6109E008233B627B
:100F3C007B68FA695A6103E000233B6200E000BF62
:100F4C00BB69FF2B01D87B6801E07B6804337B61B4
:100F5C00BB69FF2B02D87B6A9B0002E07B6A083BD3
:100F6C009B003B617B691A680F213B6901FA03F313
:100F7C00DB431A40396A3B6901FA03F31A437B6974
:100F8C001A603B685B6803F08053002B00F0B18063
:100F9C004D4B9B694C4A43F0010393614A4B9B694F
:100FAC0003F00103BB60BB68484A7B6A9B080233B1
:100FBC0052F82330FB607B6A03F003039B000F2283
:100FCC0002FA03F3DB43FA681340FB607B68404A88
:100FDC00934213D07B683F4A93420DD07B683E4AC4
:100FEC00934207D07B683D4A934201D1032306E02C
:100FFC00042304E0022302E0012300E000237A6AC8
:10100C0002F0030292009340FA681343FB602F49ED
:10101C007B6A9B080233FA6841F823203B685B68C3
:10102C0003F48013002B06D02D4B9A682C49BB6916
:10103C0013438B6006E02A4B9A68BB69DB43284953
:10104C0013408B603B685B6803F40013002B06D0E5
:10105C00234BDA682249BB691343CB6006E0204B73
:10106C00DA68BB69DB431E491340CB603B685B68A5
:10107C0003F40033002B06D0194B5A681849BB698E
:10108C0013434B6006E0164B5A68BB69DB431449AB
:10109C0013404B603B685B6803F48033002B21D01A
:1010AC000F4B1A680E49BB6913430B6021E000BF5C
:1010BC00000032100000311000002210000021103E
:1010CC00000012100000111000100240000001403E
:1010DC0000080140000C01400010014000140140C8
:1010EC00000401400B4B1A68BB69DB4309491340F0
:1010FC000B607B6A01337B623B681A687B6A22FA5D
:10110C0003F3002B7FF48EAE00BF00BF2C37BD461F
:10111C0080BC70470004014080B483B000AF78609D
:10112C000B467B8013467B707B78002B03D07A8830
:10113C007B681A6103E07B881A047B681A6100BF24
:10114C000C37BD4680BC704780B485B000AF78606A
:10115C000B467B807B68DB68FB607A88FB681340FE
:10116C001A04FB68D9437B880B401A437B681A61CD
:10117C0000BF1437BD4680BC7047000080B586B0F8
:10118C0000AF78607B68002B01D1012372E27B6891
:10119C001B6803F00103002B00F08780924B5B6807
:1011AC0003F00C03042B0CD08F4B5B6803F00C0387
:1011BC00082B12D18C4B5B6803F48033B3F5803F62
:1011CC000BD1894B1B6803F40033002B6CD07B686C
:1011DC005B68002B68D101234CE27B685B68B3F53C
:1011EC00803F06D1804B1B687F4A43F480331360E9
:1011FC002EE07B685B68002B0CD17B4B1B687A4A1A
:10120C0023F480331360784B1B68774A23F48023D4
:10121C0013601DE07B685B68B3F5A02F0CD1724B9B
:10122C001B68714A43F4802313606F4B1B686E4A32
:10123C0043F4803313600BE06B4B1B686A4A23F456
:10124C0080331360684B1B68674A23F48023136058
:10125C007B685B68002B13D0FFF7C8FC386108E093
:10126C00FFF7C4FC02463B69D31A642B01D9032354
:10127C0000E25D4B1B6803F40033002BF0D014E04C
:10128C00FFF7B4FC386108E0FFF7B0FC02463B699D
:10129C00D31A642B01D90323ECE1534B1B6803F4E1
:1012AC000033002BF0D100E000BF7B681B6803F01B
:1012BC000203002B63D04C4B5B6803F00C03002B38
:1012CC000BD0494B5B6803F00C03082B1CD1464B2D
:1012DC005B6803F48033002B16D1434B1B6803F07F
:1012EC000203002B05D07B681B69012B01D0012365
:1012FC00C0E13D4B1B6823F0F8027B685B69DB00A7
:10130C00394913430B603AE07B681B69002B20D0F2
:10131C00364B01221A60FFF769FC386108E0FFF7D1
:10132C0065FC02463B69D31A022B01D90323A1E1C8
:10133C002D4B1B6803F00203002BF0D02A4B1B68CB
:10134C0023F0F8027B685B69DB00274913430B60D1
:10135C0015E0264B00221A60FFF748FC386108E0C4
:10136C00FFF744FC02463B69D31A022B01D9032335
:10137C0080E11D4B1B6803F00203002BF0D17B684E
:10138C001B6803F00803002B3AD07B689B69002B89
:10139C0019D0174B01221A60FFF728FC386108E0BE
:1013AC00FFF724FC02463B69D31A022B01D9032315
:1013BC0060E10D4B5B6A03F00203002BF0D00120BF
:1013CC0000F0CEFA1CE00A4B00221A60FFF70EFC6C
:1013DC0038610FE0FFF70AFC02463B69D31A022B77
:1013EC0008D9032346E100BF00100240000042422E
:1013FC0080044242924B5B6A03F00203002BE9D15A
:10140C007B681B6803F00403002B00F0A68000230C
:10141C00FB758B4BDB6903F08053002B0DD1884B94
:10142C00DB69874A43F08053D361854BDB6903F05A
:10143C008053BB60BB680123FB75824B1B6803F4B4
:10144C008073002B18D17F4B1B687E4A43F480734A
:10145C001360FFF7CBFB386108E0FFF7C7FB0246D0
:10146C003B69D31A642B01D9032303E1754B1B6829
:10147C0003F48073002BF0D07B68DB68012B06D162
:10148C006F4B1B6A6E4A43F0010313622DE07B68BD
:10149C00DB68002B0CD16A4B1B6A694A23F00103F1
:1014AC001362674B1B6A664A23F0040313621CE049
:1014BC007B68DB68052B0CD1614B1B6A604A43F0DF
:1014CC00040313625E4B1B6A5D4A43F00103136213
:1014DC000BE05B4B1B6A5A4A23F001031362584B17
:1014EC001B6A574A23F0040313627B68DB68002BEA
:1014FC0015D0FFF77BFB38610AE0FFF777FB02465C
:10150C003B69D31A41F28832934201D90323B1E0EB
:10151C004B4B1B6A03F00203002BEED014E0FFF7D9
:10152C0065FB38610AE0FFF761FB02463B69D31AA1
:10153C0041F28832934201D903239BE0404B1B6A52
:10154C0003F00203002BEED1FB7D012B05D13C4BAC
:10155C00DB693B4A23F08053D3617B68DB69002B4A
:10156C0000F08780364B5B6803F00C03082B61D0CE
:10157C007B68DB69022B46D1334B00221A60FFF7E4
:10158C0035FB386108E0FFF731FB02463B69D31AA3
:10159C00022B01D903236DE0294B1B6803F0007368
:1015AC00002BF0D17B681B6AB3F5803F08D1244B2C
:1015BC005B6823F400327B689B68214913434B60C2
:1015CC001F4B5B6823F474127B68196A7B685B6A37
:1015DC000B431B4913434B601B4B01221A60FFF753
:1015EC0005FB386108E0FFF701FB02463B69D31AA3
:1015FC00022B01D903233DE0114B1B6803F0007350
:10160C00002BF0D035E0104B00221A60FFF7EEFAF9
:10161C00386108E0FFF7EAFA02463B69D31A022B5D
:10162C0001D9032326E0064B1B6803F00073002B43
:10163C00F0D11EE07B68DB69012B07D1012319E097
:10164C000010024000700040600042420B4B5B688F
:10165C00FB60FB6803F480327B681B6A9A4206D1FC
:10166C00FB6803F470127B685B6A9A4201D0012319
:10167C0000E0002318461837BD4680BD001002401C
:10168C0080B584B000AF786039607B68002B01D1E5
:10169C000123D0E06A4B1B6803F007033A689A42B7
:1016AC0010D9674B1B6823F0070265493B6813434D
:1016BC000B60634B1B6803F007033A689A4201D036
:1016CC000123B8E07B681B6803F00203002B20D0D9
:1016DC007B681B6803F00403002B05D0594B5B6837
:1016EC00584A43F4E06353607B681B6803F00803BB
:1016FC00002B05D0534B5B68524A43F46053536044
:10170C00504B5B6823F0F0027B689B684D49134398
:10171C004B607B681B6803F00103002B40D07B6897
:10172C005B68012B07D1474B1B6803F40033002B7C
:10173C0015D101237FE07B685B68022B07D1414BFD
:10174C001B6803F00073002B09D1012373E03D4BA0
:10175C001B6803F00203002B01D101236BE0394B12
:10176C005B6823F003027B685B68364913434B606C
:10177C00FFF73CFAF8600AE0FFF738FA0246FB681C
:10178C00D31A41F28832934201D9032353E02D4BF3
:10179C005B6803F00C027B685B689B009A42EBD1A0
:1017AC00274B1B6803F007033A689A4210D2244B6C
:1017BC001B6823F0070222493B6813430B60204B44
:1017CC001B6803F007033A689A4201D0012332E008
:1017DC007B681B6803F00403002B08D0194B5B6873
:1017EC0023F4E0627B68DB68164913434B607B682B
:1017FC001B6803F00803002B09D0124B5B6823F421
:10180C0060527B681B69DB000E4913434B6000F090
:10181C0021F802460B4B5B681B0903F00F030A49C6
:10182C00CB5C22FA03F3094A1360094B1B68184678
:10183C00FFF79AF9002318461037BD4680BD00BF4C
:10184C000020024000100240CC34000804000020AC
:10185C000800002080B487B000AF0023FB60002399
:10186C00BB6000237B6100237B6000233B611E4B2C
:10187C005B68FB60FB6803F00C03042B02D0082BA5
:10188C0003D027E0194B3B6127E0FB689B0C03F06E
:10189C000F03174AD35C7B60FB6803F48033002B87
:1018AC0010D0114B5B685B0C03F00103114AD35C45
:1018BC00BB607B680D4A03FB02F2BB68B2FBF3F31F
:1018CC007B6104E07B680C4A02FB03F37B617B6960
:1018DC003B6102E0054B3B6100BF3B6918461C377E
:1018EC00BD4680BC704700BF0010024000127A0059
:1018FC00E4340008F434000800093D0080B400AF63
:10190C00024B1B681846BD4680BC70470400002083
:10191C0080B500AFFFF7F2FF0246054B5B681B0A70
:10192C0003F007030349CB5C22FA03F3184680BD8E
:10193C0000100240DC34000880B500AFFFF7DEFF7A
:10194C000246054B5B68DB0A03F007030349CB5CDB
:10195C0022FA03F3184680BD00100240DC34000864
:10196C0080B485B000AF78600A4B1B680A4AA2FBB2
:10197C0003235B0A7A6802FB03F3FB6000BFFB687E
:10198C005A1EFA60002BF9D100BF00BF1437BD46B8
:10199C0080BC704704000020D34D621080B582B02B
:1019AC0000AF78607B68002B01D1012376E07B6867
:1019BC005B6A002B08D17B685B68B3F5827F09D02A
:1019CC007B680022DA6105E07B6800221A617B6883
:1019DC0000225A617B6800229A627B6893F851302E
:1019EC00DBB2002B06D17B68002283F8502078688C
:1019FC00FEF72EFF7B68022283F851207B681B6860
:101A0C001A687B681B6822F040021A607B685B686E
:101A1C0003F482727B689B6803F404431A437B686B
:101A2C00DB6803F400631A437B681B6903F0020351
:101A3C001A437B685B6903F001031A437B689B695B
:101A4C0003F400731A437B68DB6903F038031A4311
:101A5C007B681B6A03F0800342EA03017B689B6A84
:101A6C0003F400527B681B680A431A607B689B690D
:101A7C001A0C7B681B6802F004025A607B681B68B6
:101A8C00DA697B681B6822F40062DA617B680022E9
:101A9C005A657B68012283F85120002318460837C9
:101AAC00BD4680BD80B58AB000AFF860B9607A6081
:101ABC007B8001237B62FFF799F83862FB6893F80F
:101ACC005130FB77FB685B68BB617B88FB82FB7FDB
:101ADC00012B0CD0BB69B3F5827F06D1FB689B68E8
:101AEC00002B02D1FB7F042B01D002237FE1BB68CA
:101AFC00002B05D07B68002B02D07B88002B01D1FA
:101B0C00012374E1FB6893F85030012B01D10223BF
:101B1C006DE1FB68012283F85020FB6893F851308B
:101B2C00DBB2042B03D0FB68052283F85120FB6841
:101B3C0000225A65FB687A689A63FB687A88DA87B0
:101B4C00FB687A889A87FB68BA681A63FB687A889C
:101B5C00DA86FB687A889A86FB6800221A64FB682E
:101B6C0000225A64FB681B681B6803F04003402B7F
:101B7C0007D0FB681B681A68FB681B6842F04002C0
:101B8C001A60FB68DB68B3F5006F7ED1FB685B689D
:101B9C00002B02D0FB8A012B6CD1FB681B6B1A88C3
:101BAC00FB681B68DA60FB681B6B9A1CFB681A638A
:101BBC00FB68DB8E9BB2013B9AB2FB68DA8659E07C
:101BCC00FB681B689B6803F00203022B1BD1FB68AC
:101BDC00DB8E9BB2002B16D07B6A012B13D1FB68DA
:101BEC001B6B1A88FB681B68DA60FB681B6B9A1C02
:101BFC00FB681A63FB68DB8E9BB2013B9AB2FB68F5
:101C0C00DA8600237B62FB681B689B6803F0010388
:101C1C00012B19D1FB68DB8F9BB2002B14D0FB6816
:101C2C001B68DA68FB689B6B92B21A80FB689B6B33
:101C3C009A1CFB689A63FB68DB8F9BB2013B9AB2E0
:101C4C00FB68DA8701237B62FEF7D0FF02463B6A12
:101C5C00D31A3A6B9A420DD83B6BB3F1FF3F09D0C4
:101C6C00FB68012283F85120FB68002283F8502086
:101C7C000323BCE0FB68DB8E9BB2002BA0D1FB687E
:101C8C00DB8F9BB2002B9BD182E0FB685B68002B47
:101C9C0002D0FB8A012B71D1FB681A6BFB681B68A5
:101CAC000C3312781A70FB681B6B5A1CFB681A6396
:101CBC00FB68DB8E9BB2013B9AB2FB68DA865DE077
:101CCC00FB681B689B6803F00203022B1CD1FB68AA
:101CDC00DB8E9BB2002B17D07B6A012B14D1FB68D7
:101CEC001A6BFB681B680C3312781A70FB681B6B41
:101CFC005A1CFB681A63FB68DB8E9BB2013B9AB2E1
:101D0C00FB68DA8600237B62FB681B689B6803F028
:101D1C000103012B19D1FB68DB8F9BB2002B14D074
:101D2C00FB681B68DA68FB689B6BD2B21A70FB68A5
:101D3C009B6B5A1CFB689A63FB68DB8F9BB2013B65
:101D4C009AB2FB68DA8701237B62FEF74FFF0246EB
:101D5C003B6AD31A3A6B9A4203D83B6BB3F1FF3F01
:101D6C0002D13B6B002B09D1FB68012283F8512077
:101D7C00FB68002283F85020032338E0FB68DB8EDD
:101D8C009BB2002B9CD1FB68DB8F9BB2002B97D1B5
:101D9C003A6A396BF86800F0B7F80346002B08D0A4
:101DAC00FB6820225A65FB68002283F8502001232F
:101DBC001DE0FB689B68002B0AD100233B61FB688C
:101DCC001B68DB683B61FB681B689B683B613B697C
:101DDC00FB68012283F85120FB68002283F8502015
:101DEC00FB685B6D002B01D0012300E0002318463B
:101DFC002837BD4680BD000080B588B000AFF860C4
:101E0C00B9603B601346FB71FEF7F0FE0246BB6AFD
:101E1C009B1A3A681344FB61FEF7E8FEB861394B34
:101E2C001B685B011B0DFA6902FB03F37B6154E039
:101E3C003B68B3F1FF3F50D0FEF7D8FE0246BB69BA
:101E4C00D31AFA699A4202D9FB69002B3DD1FB687F
:101E5C001B685A68FB681B6822F0E0025A60FB683A
:101E6C005B68B3F5827F11D1FB689B68B3F5004FBB
:101E7C0004D0FB689B68B3F5806F07D1FB681B68C7
:101E8C001A68FB681B6822F040021A60FB689B6AA8
:101E9C00B3F5005F0FD1FB681B681A68FB681B6801
:101EAC0022F400521A60FB681B681A68FB681B68F6
:101EBC0042F400521A60FB68012283F85120FB683F
:101ECC00002283F85020032317E07B69002B01D1FB
:101EDC000023FB617B69013B7B61FB681B689A6893
:101EEC00BB681340BA689A420CBF01230023DBB2D3
:101EFC001A46FB799A429BD1002318462037BD46DF
:101F0C0080BD00BF0400002080B586B002AFF86031
:101F1C00B9607A607B680093BB6801220221F86883
:101F2C00FFF76AFF0346002B07D0FB685B6D43F09D
:101F3C002002FB685A65032313E07B680093BB689F
:101F4C0000228021F868FFF757FF0346002B07D0CB
:101F5C00FB685B6D43F02002FB685A65032300E0CD
:101F6C00002318461037BD4680BD80B582B000AF47
:101F7C0078607B68002B01D1012341E07B6893F8EA
:101F8C003D30DBB2002B06D17B68002283F83C206D
:101F9C007868FEF7A7FC7B68022283F83D207B68FB
:101FAC001A687B6804331946104600F0EFF87B681A
:101FBC00012283F846207B68012283F83E207B684F
:101FCC00012283F83F207B68012283F840207B6844
:101FDC00012283F841207B68012283F842207B6830
:101FEC00012283F843207B68012283F844207B681C
:101FFC00012283F845207B68012283F83D200023D1
:10200C0018460837BD4680BD80B586B000AFF86075
:10201C00B9607A600023FB75FB6893F83C30012BA8
:10202C0001D10223AEE0FB68012283F83C207B68DF
:10203C000C2B00F29F8001A252F823F07D200008A7
:10204C00812100088121000881210008BD200008A1
:10205C00812100088121000881210008FF2000084F
:10206C008121000881210008812100083F210008FE
:10207C00FB681B68B968184600F0F6F8FB681B682B
:10208C009A69FB681B6842F008029A61FB681B683E
:10209C009A69FB681B6822F004029A61FB681B6852
:1020AC009969BB681A69FB681B680A439A6164E00A
:1020BC00FB681B68B968184600F03CF9FB681B68A4
:1020CC009A69FB681B6842F400629A61FB681B68A2
:1020DC009A69FB681B6822F480629A61FB681B6832
:1020EC009969BB681B691A02FB681B680A439A61F1
:1020FC0043E0FB681B68B968184600F085F9FB687B
:10210C001B68DA69FB681B6842F00802DA61FB683D
:10211C001B68DA69FB681B6822F00402DA61FB6851
:10212C001B68D969BB681A69FB681B680A43DA61CA
:10213C0023E0FB681B68B968184600F0CFF9FB6810
:10214C001B68DA69FB681B6842F40062DA61FB68A1
:10215C001B68DA69FB681B6822F48062DA61FB6831
:10216C001B68D969BB681B691A02FB681B680A43A8
:10217C00DA6102E00123FB7500BFFB68002283F8E3
:10218C003C20FB7D18461837BD4680BD80B485B019
:10219C0000AF786039607B681B68FB607B682F4AF6
:1021AC0093420BD07B68B3F1804F07D07B682C4AED
:1021BC00934203D07B682B4A934208D1FB6823F0EF
:1021CC007003FB603B685B68FA681343FB607B68D9
:1021DC00224A93420BD07B68B3F1804F07D07B68C7
:1021EC001F4A934203D07B681E4A934208D1FB6876
:1021FC0023F44073FB603B68DB68FA681343FB60B5
:10220C00FB6823F080023B685B691343FB607B68CF
:10221C00FA681A603B689A687B68DA623B681A68ED
:10222C007B689A627B680D4A934203D13B681A69BA
:10223C007B681A637B6801225A617B681B6903F017
:10224C000103002B05D07B681B6923F001027B681E
:10225C001A6100BF1437BD4680BC7047002C01408A
:10226C00000400400008004080B487B000AF7860E4
:10227C0039607B681B6A7B617B681B6A23F00102F7
:10228C007B681A627B685B683B617B689B69FB605F
:10229C00FB6823F07003FB60FB6823F00303FB6017
:1022AC003B681B68FA681343FB607B6923F00203ED
:1022BC007B613B689B687A6913437B617B681C4A32
:1022CC0093420CD17B6923F008037B613B68DB688C
:1022DC007A6913437B617B6923F004037B617B6820
:1022EC00134A934211D13B6923F480733B613B69E0
:1022FC0023F400733B613B685B693A6913433B61B0
:10230C003B689B693A6913433B617B683A695A6045
:10231C007B68FA689A613B685A687B685A637B6889
:10232C007A691A6200BF1C37BD4680BC704700BF7B
:10233C00002C014080B487B000AF786039607B68B6
:10234C001B6A7B617B681B6A23F010027B681A6234
:10235C007B685B683B617B689B69FB60FB6823F473
:10236C00E043FB60FB6823F44073FB603B681B6835
:10237C001B02FA681343FB607B6923F020037B612B
:10238C003B689B681B017A6913437B617B681D4A20
:10239C0093420DD17B6923F080037B613B68DB6842
:1023AC001B017A6913437B617B6923F040037B61DA
:1023BC007B68144A934213D13B6923F480633B61DD
:1023CC003B6923F400633B613B685B699B003A69A2
:1023DC0013433B613B689B699B003A6913433B6128
:1023EC007B683A695A607B68FA689A613B685A68FC
:1023FC007B689A637B687A691A6200BF1C37BD469A
:10240C0080BC7047002C014080B487B000AF78606E
:10241C0039607B681B6A7B617B681B6A23F4807262
:10242C007B681A627B685B683B617B68DB69FB607D
:10243C00FB6823F07003FB60FB6823F00303FB6075
:10244C003B681B68FA681343FB607B6923F40073D9
:10245C007B613B689B681B027A6913437B617B68D9
:10246C001D4A93420DD17B6923F400637B613B6869
:10247C00DB681B027A6913437B617B6923F48063FD
:10248C007B617B68144A934213D13B6923F48053DC
:10249C003B613B6923F400533B613B685B691B0167
:1024AC003A6913433B613B689B691B013A691343CF
:1024BC003B617B683A695A607B68FA68DA613B6811
:1024CC005A687B68DA637B687A691A6200BF1C37CA
:1024DC00BD4680BC704700BF002C014080B487B063
:1024EC0000AF786039607B681B6A3B617B681B6A54
:1024FC0023F480527B681A627B685B687B617B6823
:10250C00DB69FB60FB6823F4E043FB60FB6823F4AE
:10251C004073FB603B681B681B02FA681343FB604B
:10252C003B6923F400533B613B689B681B033A698E
:10253C0013433B617B680F4A934209D17B6923F4B7
:10254C0080437B613B685B699B017A6913437B61C8
:10255C007B687A695A607B68FA68DA613B685A680A
:10256C007B681A647B683A691A6200BF1C37BD46E7
:10257C0080BC7047002C014080B485B000AF7860FF
:10258C0039607B6893F83C30012B01D1022346E083
:10259C007B68012283F83C207B68022283F83D2073
:1025AC007B681B685B68FB607B681B689B68BB6017
:1025BC00FB6823F07003FB603B681B68FA681343ED
:1025CC00FB607B681B68FA685A607B681B68164A5C
:1025DC0093420ED07B681B68B3F1804F09D07B68A7
:1025EC001B68124A934204D07B681B68104A9342C2
:1025FC000CD1BB6823F08003BB603B685B68BA6896
:10260C001343BB607B681B68BA689A607B680122C5
:10261C0083F83D207B68002283F83C200023184679
:10262C001437BD4680BC7047002C014000040040AC
:10263C000008004080B485B000AF7860396000239A
:10264C00FB607B6893F83C30012B01D102233DE009
:10265C007B68012283F83C20FB6823F0FF023B6877
:10266C00DB681343FB60FB6823F440723B689B6898
:10267C001343FB60FB6823F480623B685B68134385
:10268C00FB60FB6823F400623B681B681343FB6030
:10269C00FB6823F480523B681B691343FB60FB68A7
:1026AC0023F400523B685B691343FB60FB6823F423
:1026BC0080423B68DB691343FB607B681B68FA68EC
:1026CC005A647B68002283F83C2000231846143798
:1026DC00BD4680BC704780B582B000AF78607B6827
:1026EC00002B01D1012342E07B6893F84130DBB22F
:1026FC00002B06D17B68002283F840207868FEF717
:10270C0043F97B68242283F841207B681B68DA68D4
:10271C007B681B6822F40052DA60786800F072F96A
:10272C007B681B681A697B681B6822F490421A61EB
:10273C007B681B685A697B681B6822F02A025A6105
:10274C007B681B68DA687B681B6842F40052DA60AD
:10275C007B6800225A647B68202283F841207B68C6
:10276C00202283F842207B6800225A6300231846FB
:10277C000837BD4680BD80B58AB002AFF860B9603D
:10278C003B601346FB8000237B61FB6893F8413070
:10279C00DBB2202B75D1BB68002B02D0FB88002B41
:1027AC0001D101236EE0FB6800225A64FB682122F0
:1027BC0083F84120FEF71AFA7861FB68FA889A844C
:1027CC00FB68FA88DA84FB689B68B3F5805F08D1F4
:1027DC00FB681B69002B04D10023FB61BB68BB6148
:1027EC0003E0BB68FB610023BB612EE03B680093F8
:1027FC007B6900228021F86800F048F80346002B22
:10280C0005D0FB68202283F8412003233AE0FB69C2
:10281C00002B0BD1BB691B881A46FB681B68C2F3E3
:10282C0008025A60BB690233BB6107E0FB691A7886
:10283C00FB681B685A60FB690133FB61FB68DB8C2E
:10284C009BB2013B9AB2FB68DA84FB68DB8C9BB2CF
:10285C00002BCBD13B6800937B6900224021F868A8
:10286C0000F014F80346002B05D0FB68202283F8F7
:10287C004120032306E0FB68202283F8412000233B
:10288C0000E0022318462037BD4680BD80B586B0D7
:10289C0000AFF860B9603B601346FB713BE03B6AEC
:1028AC00B3F1FF3F37D0FEF7A1F902463B68D31ACC
:1028BC003A6A9A4202D33B6A002B01D103233AE0D5
:1028CC00FB681B68DB6803F00403002B23D0BB6898
:1028DC00802B20D0BB68402B1DD0FB681B681B686D
:1028EC0003F00803082B16D100237B61FB681B68DF
:1028FC001B687B61FB681B685B687B617B69F868A4
:10290C0000F01DF8FB6808225A64FB68002283F86B
:10291C00402001230FE0FB681B681A68BB6813405A
:10292C00BA689A420CBF01230023DBB21A46FB792A
:10293C009A42B4D0002318461837BD4680BD80B4E7
:10294C0095B000AF78607B681B680C337B637B6B46
:10295C0053E8003F3B633B6B23F49073FB647B6851
:10296C001B680C33FA6C3A64FB63F96B3A6C41E804
:10297C000023BB63BB6B002BE5D17B681B68143356
:10298C003B623B6A53E8003FFB61FB6923F00103A8
:10299C00BB647B681B681433BA6CFA62BB62B96A9D
:1029AC00FA6A41E800237B627B6A002BE5D17B68E5
:1029BC001B6B012B19D17B681B680C33FB60FB680C
:1029CC0053E8003FBB60BB6823F010037B647B685B
:1029DC001B680C337A6CBA617B617969BA6941E81E
:1029EC0000233B613B69002BE5D17B68202283F8F7
:1029FC0042207B6800221A6300BF5437BD4680BC5E
:102A0C007047000080B584B000AF78607B681B68AD
:102A1C001B6923F440517B68DA687B681B680A43A6
:102A2C001A617B689A687B681B691A437B685B69CF
:102A3C001343BB607B681B68DB6823F4B05323F043
:102A4C000C037A681268B9680B43D3607B681B6807
:102A5C005B6923F440717B689A697B681B680A4345
:102A6C005A617B681B682C4A934203D1FEF764FFC2
:102A7C00F86002E0FEF74CFFF860FA6813469B0022
:102A8C0013449A001A447B685B689B00B2FBF3F317
:102A9C00224AA2FB03235B091901FA6813469B0027
:102AAC0013449A001A447B685B689B00B2FBF3F2F8
:102ABC001A4BA3FB02035B09642000FB03F3D31A3C
:102ACC001B013233154AA2FB03235B0903F0F0030D
:102ADC001944FA6813469B0013449A001A447B6805
:102AEC005B689B00B2FBF3F20C4BA3FB02035B098C
:102AFC00642000FB03F3D31A1B013233074AA2FBF9
:102B0C0003235B0903F00F027B681B680A449A607D
:102B1C0000BF1037BD4680BD003801401F85EB510A
:102B2C000EB46FF0004110B500249DB01FAB0290A5
:102B3C000690079104910948094953F8042B059113
:102B4C00006802A901931B9400F092F9029B1C707F
:102B5C001DB0BDE8104003B0704700BF100000204E
:102B6C000802FFFF03460244934200D1704703F86A
:102B7C00011BF9E7014B1868704700BF10000020DB
:102B8C0070B500260C4D0D4C641BA410A64209D147
:102B9C0000F076FC00260A4D0A4C641BA410A642D9
:102BAC0005D170BD55F8043B98470136EEE755F852
:102BBC00043B98470136F2E73435000834350008F9
:102BCC0034350008383500087047704738B505466D
:102BDC00002940D051F8043C0C1F002BB8BFE4185E
:102BEC0000F0DEF81C4A136833B9636014602846A1
:102BFC00BDE8384000F0DAB8A34208D920682118A3
:102C0C008B4201BF19685B6809182160EDE71A4611
:102C1C005B680BB1A342FAD911685018A0420BD1D2
:102C2C0020680144501883421160E0D118685B6839
:102C3C00084410605360DAE702D90C232B60D6E706
:102C4C00206821188B4201BF19685B680918216044
:102C5C0063605460CBE738BDC402002070B50F4EE2
:102C6C000C463168054611B900F0A8FB30602146CE
:102C7C00284600F0A3FB431C03D14FF0FF34204641
:102C8C0070BDC41C24F00304A042F8D0211A2846BD
:102C9C0000F094FB0130F2D1EFE700BFC00200203E
:102CAC002DE9F843CD1C25F0030508350C2D38BF54
:102CBC000C25002D064601DBA94204D90C233360F8
:102CCC000020BDE8F883DFF8D48000F069F8D8F86C
:102CDC0000301C4644BB29463046FFF7BFFF431C5F
:102CEC00044658D1D8F800402746002F43D1002C79
:102CFC004BD023683946304604EB030900F05EFBE9
:102D0C00814542D1216830466D1A2946FFF7A6FF4E
:102D1C0001303AD023682B442360D8F800305A682D
:102D2C0062BBC8F800700FE02268521B20D40B2A3B
:102D3C0017D96119A342256018BF5960636808BF91
:102D4C00C8F8001062514B60304600F02FF804F1C7
:102D5C000B00231D20F00700C21A1CBF1B1AA35026
:102D6C00AFE76268A3420CBFC8F800205A60EBE7DB
:102D7C0023466468AEE73C467F68B6E71A465B6854
:102D8C00A342FBD100235360DEE70C2330463360B3
:102D9C0000F00CF894E70560D6E700BFC4020020F1
:102DAC000148FFF711BF00BFBC0200200148FFF72C
:102DBC000CBF00BFBC0200202DE9F0471F468E68F7
:102DCC008246BE420C4690460B682DD8B1F90C20B9
:102DDC0012F4906F26D06569096905EB4505A3EBE4
:102DEC00010905EBD5757B1C4B446D109D4238BF1A
:102DFC001D46530527D52946FFF752FF064660B3FB
:102E0C004A46216900F0F8FAA38923F4906343F051
:102E1C008003A38126614E4426603E466561A5EB86
:102E2C000905A560BE4200D93E463246414620689F
:102E3C0000F0AAFA0020A3689B1BA360236833440C
:102E4C002360BDE8F0872A4600F0E4FA0646002825
:102E5C00E0D150462169FFF7B9FE0C23CAF80030C7
:102E6C00A3894FF0FF3043F04003A381E9E7000052
:102E7C002DE9F04F98468B8907461B060D461446E4
:102E8C009DB010D50B6973B94021FFF709FF28607D
:102E9C00286130B90C233B604FF0FF301DB0BDE80A
:102EAC00F08F40236B610023099320238DF8293088
:102EBC0030234FF00109CDF80C80DFF898818DF8A4
:102ECC002A3023469A4613F8012B0AB1252AF9D148
:102EDC00BAEB040B0BD05B46224629463846FFF76B
:102EEC006BFF013000F0A780099A5A4409929AF8B6
:102EFC000030002B00F09F8000234FF0FF32CDE913
:102F0C0005230AF1010A049307938DF853301A93A1
:102F1C005446052214F8011B4E4800F05FFA049A3F
:102F2C00D8B9D00644BF20238DF85330110744BFC5
:102F3C002B238DF853309AF800302A2B15D0544699
:102F4C0000204FF00A0C079A214611F8013B303B48
:102F5C00092B4BD9B0B1079214E0A0EB080309FA86
:102F6C0003F31343A2460493D2E7039B191D1B687A
:102F7C000391002BBBBF5B4242F002020793079305
:102F8C00B8BF049223782E2B0AD163782A2B32D126
:102F9C00039B02341A1D1B68039243EAE3730593E7
:102FAC00DFF8B4A003225046217800F017FA38B1AC
:102FBC004022049BA0EB0A0082401343013404938B
:102FCC0014F8011B062225488DF8281000F006FA8B
:102FDC00002836D0224B1BBB039B073323F007037F
:102FEC0008330393099B334409936AE70C46012089
:102FFC000CFB0232A8E700234FF00A0C19460134EF
:10300C000593204610F8012B303A092A03D9002BDE
:10301C00C6D00591C4E7044601230CFB0121F0E75F
:10302C0003AB00932A4638460E4B04A9AFF300803D
:10303C00421C0646D6D1AB895B063FF52DAF0998ED
:10304C002CE703AB00932A463846064B04A900F044
:10305C007DF8EDE7F6340008FC3400080035000874
:10306C0000000000C52D00082DE9F04716469846D3
:10307C008A680B6907469342B8BF1346336091F8D0
:10308C0043200C46DDF820900AB1013333602368ED
:10309C00990642BF336802333360256815F0060584
:1030AC0006D104F1190AE36832689B1AAB422BDC97
:1030BC0094F843302268003B18BF0123920630D4A9
:1030CC004146384604F14302C847013023D02368F7
:1030DC00226903F00603042B14BF002533684FF05C
:1030EC00000608BFE56804F11A0408BFED1A54F88D
:1030FC00123C08BF25EAE5759342C4BF9B1AED1834
:10310C00B5421AD1002008E0012352464146384608
:10311C00C847013003D14FF0FF30BDE8F0870135CF
:10312C00C1E73020E11881F843005A1C94F845108F
:10313C002244023382F84310C2E70123224641465F
:10314C003846C8470130E6D00136D9E72DE9FF47AC
:10315C000F7E9146782F80460C469A460C9E01F1C4
:10316C00430207D8622F0AD8002F00F0D180582FC5
:10317C0000F0B88004F1420684F842703AE0A7F1FE
:10318C006303152BF6D801A151F823F0F131000897
:10319C0005320008813100088131000881310008B6
:1031AC0081310008053200088131000881310008A6
:1031BC008131000881310008033300082F320008E8
:1031CC00BD32000881310008813100082533000828
:1031DC00813100082F32000881310008813100084C
:1031EC00C532000833681A1D1B68326004F14206B0
:1031FC0084F8423001239CE033682068191D31604B
:10320C00060601D51D6803E04506FBD5B3F9005051
:10321C00002D03DA2D236D4284F843300A235848DD
:10322C0011E021683368080653F8045B02D44906A0
:10323C0048BFADB26F2F336014BF0A230823504828
:10324C00002184F843106668002EA66005DB216817
:10325C002E4321F0040121604BD01646B5FBF3F14F
:10326C0003FB1157C75D06F8017D2F46BB420D4687
:10327C00F4D9082B0BD12368DF0708D523696168C3
:10328C009942DEBF302306F8013C06F1FF36921B53
:10329C0022614B4621464046CDF800A003AAFFF719
:1032AC00E3FE01304AD14FF0FF3004B0BDE8F087A7
:1032BC00236843F0200323607827324884F8457054
:1032CC00236831681F0651F8045B02D45F0648BFBF
:1032DC00ADB23160D90744BF43F0200323601DB168
:1032EC001023ADE72648E9E7236823F02003236089
:1032FC00F6E71646BDE733682568181D616930602E
:10330C002E061B6801D5196002E06806FBD51980F2
:10331C00002316462361BCE7336800211A1D326076
:10332C001E686268304600F059F808B1801B606076
:10333C0063682361002384F84330AAE73246494688
:10334C0040462369D0470130ADD023689B0713D486
:10335C00E068039B9842B8BF1846A6E701233246A3
:10336C0049464046D04701309DD00135E36803996A
:10337C005B1AAB42F2DCEBE7002504F11906F5E72A
:10338C000735000818350008884210B501EB020417
:10339C0002D98442234607D8431EA14208D011F813
:1033AC00012B03F8012FF8E7014602448A4200D1B1
:1033BC0010BD13F8014D02F8014DF7E738B50023A5
:1033CC00054D044608462B60FDF756FB431C02D105
:1033DC002B6803B1236038BDB8020020034610B53A
:1033EC00C9B202449342184601D1002003E004788C
:1033FC0001338C42F6D110BD0A44914200F1FF33E7
:10340C0000D1704710B511F8014B914203F8014FF0
:10341C00F9D110BD2DE9F041074614460D4621B9EE
:10342C001146BDE8F041FFF73BBC2AB9FFF7CEFBD4
:10343C0025462846BDE8F08100F01AF8844206467D
:10344C0002D8B4EB500FF4D821463846FFF728FCCD
:10345C00804608B94546ECE7B4422246294628BFC7
:10346C003246FFF7C9FF29463846FFF7AFFBF1E7B5
:10347C0051F8043C181F002BBCBF0B58C0187047E8
:10348C00F8B500BFF8BC08BC9E467047F8B500BF45
:08349C00F8BC08BC9E46704715
:1034A400E7E7E7E7E70000004F4B203D20256420D5
:1034B400446174612052656365697665643A2025C8
:1034C40064200D0A0000000000000000000000005D
:1034D40001020304060708090000000001020304B6
:1034E40002030405060708090A0B0C0D0E0F101041
:1034F4000102232D302B2000686C4C006566674563
:103504004647003031323334353637383941424357
:103514004445460030313233343536373839616208
:0835240063646566000000000D
:08352C0020CCFF7F010000002C
:043534003101000859
:043538000D01000879
:10353C00FFFF000000127A001000000001000000E4
:10354C00140000200000000080010020E801002091
:10355C0050020020000000000000000000000000ED
:10356C00000000000000000000000000000000004F
:10357C00000000000000000000000000000000003F
:10358C00000000000000000000000000000000002F
:0400000508000AFDE8
:00000001FF
