:020000040800F2
:1000000000180020350C0008E10B0008E70B000881
:1000100000000000000000000000000000000000E0
:10002000000000000000000000000000ED0B0008D0
:100030000000000000000000F70B0008010C0008A1
:10004000B50C000800000000B50C0008B50C000855
:10005000B50C0008B50C0008B50C0008B50C00087C
:1000600000000000110C0008B50C0008B50C0008D9
:10007000B50C0008B50C0008B50C00080000000025
:10008000B50C00080000000000000000B50C0008DE
:1000900000000000B50C0008B50C0008B50C000805
:1000A00000000000B50C000800000000B50C0008BE
:1000B000B50C00080000000000000000B50C0008AE
:1000C00010B5064C2378002B07D1054B002B02D02E
:1000D000044800E000BF0123237010BD140000207D
:1000E00000000000A4340008044B10B5002B03D01E
:1000F0000349044800E000BF10BDC04600000000F6
:1001000018000020A4340008002243088B4274D356
:1001100003098B425FD3030A8B4244D3030B8B4208
:1001200028D3030C8B420DD3FF22090212BA030C11
:100130008B4202D31212090265D0030B8B4219D3F2
:1001400000E0090AC30B8B4201D3CB03C01A524112
:10015000830B8B4201D38B03C01A5241430B8B425A
:1001600001D34B03C01A5241030B8B4201D30B0343
:10017000C01A5241C30A8B4201D3CB02C01A52416A
:10018000830A8B4201D38B02C01A5241430A8B422D
:1001900001D34B02C01A5241030A8B4201D30B0216
:1001A000C01A5241CDD2C3098B4201D3CB01C01A30
:1001B000524183098B4201D38B01C01A524143093A
:1001C0008B4201D34B01C01A524103098B4201D328
:1001D0000B01C01A5241C3088B4201D3CB00C01A95
:1001E000524183088B4201D38B00C01A524143080D
:1001F0008B4201D34B00C01A5241411A00D2014632
:10020000524110467047FFE701B5002000F006F8A4
:1002100002BDC0460029F7D076E770477047C04658
:1002200080B500AF802399009023DB0500221800E1
:1002300001F088FDC046BD4680BD80B500AF80237B
:1002400099009023DB050122180001F07BFDC046D8
:10025000BD4680BD80B500AF8023D9009023DB056B
:100260000122180001F06EFDC046BD4680BD80B57C
:1002700000AF8023D9009023DB050022180001F095
:1002800061FDC046BD4680BD90B585B000AF02009F
:10029000FB1D1A70BB1D0A1C1A70FB1D1B78202247
:1002A0001343DAB20C243B191A703B19BA1D1278A9
:1002B0005A70FFF7B5FFFA239B0039190448022250
:1002C00002F05CFAFFF7B9FFC046BD4605B090BD2D
:1002D000B400002090B587B000AFB9607A600F21FC
:1002E0007B18021C1A707B181B7820221343DAB289
:1002F00014243B191A70FFF793FF39190948642336
:10030000012202F03BFA7B689AB2FA239B00B9689B
:10031000044802F033FAFFF790FFC046BD4607B02D
:1003200090BDC046B400002090B585B000AF02007B
:10033000FB1D1A700F243B1900221A70FFF770FF83
:10034000F91D09486423012202F018FA39190648F8
:100350006423012202F072FBFFF76FFF3B191B7849
:100360001800BD4605B090BDB400002080B582B035
:1003700000AF0200FB1D1A70FFF752FFF91D054880
:100380006423012202F0FAF9FFF757FFC046BD4689
:1003900002B080BDB400002080B588B000AF02007C
:1003A000FB1D1A70FB1D1B78072B04D100210720B1
:1003B000FFF76AFF8BE0FB1D1B78172B04D111217F
:1003C0001720FFF761FF82E008210020FFF75CFFA4
:1003D0003F210120FFF758FF03210220FFF754FFC0
:1003E00003210320FFF750FF03210420FFF74CFFF8
:1003F00002210520FFF748FF0E210620FFF744FFEA
:1004000000210720FFF740FF00210820FFF73CFFF5
:1004100000210920FFF738FF18203B182E4A1168E9
:10042000196012791A713B18052219000A20FFF78A
:1004300051FF10203B18294A1168196012791A716E
:100440003B18052219000B20FFF744FFC3210C20A5
:10045000FFF71AFFC4210D20FFF716FFC5210E205C
:10046000FFF712FFC6210F20FFF70EFF08203B18F1
:10047000194A1168196012791A713B18052219007E
:100480001020FFF727FF00211120FFF7FDFE0021BC
:100490001220FFF7F9FE00211320FFF7F5FE0021DF
:1004A0001420FFF7F1FE00211520FFF7EDFE0021DB
:1004B0001620FFF7E9FE11211720FFF7E5FE0021C6
:1004C0001C20FFF7E1FE00211D20FFF7DDFEC046E6
:1004D000BD4608B080BDC046BC340008C434000826
:1004E00080B500AFFFF7C3FE0020FFF755FF0021E6
:1004F0000020FFF7C9FE00210120FFF7C5FE002103
:100500000220FFF7C1FE03210320FFF7BDFE0021FB
:100510000420FFF7B9FE00210520FFF7B5FE0E21EC
:100520000620FFF7B1FEFFF795FEC046BD4680BD31
:10053000B0B584B000AF78600A00FB1C1A70FFF7FA
:1005400096FEFB1C1B7819000520FFF79DFE7B68BB
:10055000052219001020FFF7BDFE0F257C19002091
:10056000FFF7E2FE0300237028003B183A181278C8
:1005700002210A431A703B183A1812780D218A4357
:100580001A703B181B7819000020FFF77DFEFFF75B
:1005900061FEC046BD4604B0B0BD0000F0B585B0F8
:1005A00000AF78600E257B1900221A70FFF738FE25
:1005B0007B19A0221A7079191A486423012202F0CB
:1005C000DDF8FA239B0079681648202202F0D6F85D
:1005D000FFF733FE012000F0D3FB0F26BC191720D4
:1005E000FFF7A2FE0300237031007B181B78102256
:1005F000134011D07B181B78082213400CD17B19B3
:10060000E1221A707B191B781800FFF7AFFE172044
:10061000FFF7C2FE012300E000231800BD4605B02D
:10062000F0BDC046B400002080B500AF00F044FB30
:1006300000F044F800F068F900F048F900F086F89E
:1006400000F006F9FFF74CFF052000F099FB164B70
:100650000A211800FFF76CFF1449154B04221800FB
:1006600000F0F2FC134B01220221180001F06AFB9A
:100670000E4B1B685AB2104B1A700C4B5B685AB287
:100680000D4B5A70094B9B685AB20B4B9A70074B33
:10069000DB685AB2084BDA70074B1800FFF77EFF91
:1006A000322000F06DFBDDE7000000201801002083
:1006B00030000020000400482801002090B591B0CF
:1006C00000AF10243B19180030231A00002102F05B
:1006D000E1FE3B00180010231A00002102F0DAFEB0
:1006E00021007B1801221A607B1801225A607B18B6
:1006F00002221A627B18802252025A627B188022E0
:10070000D2029A627B180022DA627B18180001F08C
:1007100037FB031E01D000F07BF93B0007221A6073
:100720003B0002225A603B0000229A603B000022FC
:10073000DA603B000121180001F040FE031E01D0E9
:1007400000F066F9C046BD4611B090BD80B584B0DA
:1007500000AF3B1D18000C231A00002102F09AFE86
:10076000394B3A4A1A60384B802212065A60364B8F
:1007700000229A60344B0022DA60334B01221A6166
:10078000314B04225A61304B00221A762E4B002244
:100790005A762D4B01229A762B4B0022DA762A4B81
:1007A000C222FF32DA61284B00221A62264B242231
:1007B00001219954244B01229A62234B180000F026
:1007C00003FB031E01D000F023F93B1D01221A6038
:1007D0003B1D802252015A603B1D07229A603A1D40
:1007E000194B1100180000F0C9FC031E01D000F0E5
:1007F0000FF93B1D02221A603A1D134B110018001D
:1008000000F0BCFC031E01D000F002F93B1D0322E6
:100810001A603A1D0C4B1100180000F0AFFC031ECB
:1008200001D000F0F5F83B1D04221A603A1D064B7A
:100830001100180000F0A2FC031E01D000F0E8F83F
:10084000C046BD4604B080BD3000002000240140F9
:1008500080B500AF1B4B1C4A1A601A4B8222520013
:100860005A60184B00229A60164BC0229200DA6040
:10087000144B00221A61134B00225A61114B802243
:1008800092009A610F4B1822DA610E4B00221A6215
:100890000C4B00225A620B4B00229A62094B072232
:1008A000DA62084B00221A63064B08225A63054B92
:1008B000180001F0ABFE031E01D000F0A9F8C046FD
:1008C000BD4680BDB40000200030014080B582B03C
:1008D00000AF0C4B5A690B4B01210A435A61094B7B
:1008E0005B69012213407B607B68002200210920A4
:1008F00000F0EEFE092000F000FFC046BD4602B049
:1009000080BDC0460010024090B589B000AF0C24F5
:100910003B19180014231A00002102F0BBFD394BCB
:100920005A69384B8021C9030A435A61354B5A69C9
:100930008023DB031340BB60BB68324B5A69314BE9
:10094000802189020A435A612E4B5A6980239B02F7
:1009500013407B607B682B4B5A692A4B8021C9026C
:100960000A435A61274B5A698023DB0213403B60DC
:100970003B68254B00220221180001F0E3F9802397
:10098000D9009023DB050022180001F0DBF93B19A8
:100990001E4A1A603B1900225A603B1900229A60D5
:1009A0003A199023DB051100180001F05BF83B19A0
:1009B00002221A603B1901225A603B1900229A60F8
:1009C0003B190022DA603B190F4A1900100001F0B0
:1009D00049F821007B188022D2001A607B1801227E
:1009E0005A607B1800229A607B180022DA607A181D
:1009F0009023DB051100180001F034F8C046BD4615
:100A000009B090BD0010024000040048010200003F
:100A100080B500AF72B6C046FEE7000080B582B078
:100A200000AF0F4B9A690E4B01210A439A610C4BA0
:100A30009B69012213407B607B68094BDA69084B94
:100A4000802149050A43DA61054BDA6980235B0599
:100A500013403B603B68C046BD4602B080BDC04607
:100A60000010024090B58BB000AF786014243B19A1
:100A7000180014231A00002102F00CFD7B681B688B
:100A80002D4A934254D12D4B9A692C4B80218900D9
:100A90000A439A61294B9A6980239B0013403B616A
:100AA0003B69264B5A69254B802189020A435A61CA
:100AB000224B5A6980239B021340FB60FB683B1961
:100AC0001E221A603B1903225A603B1900229A60C9
:100AD0003A199023DB051100180000F0C3FF184BF2
:100AE000184A1A60164B00225A60154B00229A6071
:100AF000134B8022DA60124B802252001A61104B95
:100B00008022D2005A610E4B20229A610C4B802227
:100B10005201DA610A4B180000F00CFE031E01D0EE
:100B2000FFF776FF7B68064A1A63054B7A685A62BC
:100B3000C046BD460BB090BD0024014000100240ED
:100B4000700000200800024090B58BB000AF7860C4
:100B500014243B19180014231A00002102F09AFCF7
:100B60007B681B681C4A934232D11C4B9A691B4B11
:100B7000802149010A439A61184B9A6980235B01DD
:100B800013403B613B69154B5A69144B8021890224
:100B90000A435A61114B5A6980239B021340FB6040
:100BA000FB6821007B18E0221A607B1802225A6041
:100BB0007B1800229A607B180322DA607B180022DF
:100BC0001A617A189023DB051100180000F04AFF23
:100BD000C046BD460BB090BD003001400010024041
:100BE00080B500AFFEE780B500AFFEE780B500AF8F
:100BF000C046BD4680BD80B500AFC046BD4680BD85
:100C000080B500AF00F0A0F8C046BD4680BD000032
:100C100080B500AF034B180000F03AFEC046BD4659
:100C200080BDC0467000002080B500AFC046BD4604
:100C300080BD000013488546FFF7F6FF12480168A3
:100C4000090E124A914205D1114812490160124819
:100C50001249016012481349134A002302E0D45894
:100C6000C4500433C4188C42F9D3104A104C0023EA
:100C700001E013600432A242FBD302F0E7FBFFF76E
:100C8000D3FCFEE700180020040000001F00000055
:100C900018100240010000000000014000000000A8
:100CA000000000201400002004350008140000207B
:100CB00030010020FEE7000080B500AF074B1A6846
:100CC000064B10210A431A60032000F009F8FFF7D1
:100CD000A5FE00231800BD4680BDC046002002408E
:100CE00090B583B000AF7860144B1C68144B1B7830
:100CF0001900FA239800FFF707FA030019002000F3
:100D0000FFF702FA0300180000F007FD031E01D0F0
:100D100001230FE07B68032B0BD8796801235B422A
:100D20000022180000F0D4FC064B7A681A600023F9
:100D300000E001231800BD4603B090BD080000206C
:100D4000100000200C00002080B500AF054B1B7880
:100D50001A00054B1B68D218034B1A60C046BD46EB
:100D600080BDC046100000202C01002080B500AFDF
:100D7000024B1B681800BD4680BDC0462C010020F8
:100D800080B584B000AF7860FFF7F0FF0300BB6070
:100D90007B68FB60FB68013305D00A4B1B781A00A7
:100DA000FB689B18FB60C046FFF7E0FF0200BB68D2
:100DB000D31AFA689A42F7D8C046C046BD4604B076
:100DC00080BDC0461000002080B584B000AF7860C0
:100DD0000F23FB1800221A700023BB607B68002BD6
:100DE00001D1012325E17B689B6B002B0AD17B6835
:100DF0000022DA637B683422002199547B68180052
:100E0000FFF730FE7B689B6B1022134000D003E19C
:100E10000F23FB181B78002B00D0FDE07B681B68BC
:100E20009B680422134000D0F6E07B689B6B834AEA
:100E3000134002221A437B689A637B681B689B6895
:100E400003221340012B12D17B681B681B6801220F
:100E50001340012B09D07B681B68DA6880231B02D2
:100E60001A4080231B029A4201D1012300E0002393
:100E7000002B16D17B681B68DB681822934319008E
:100E80007B689A687B681B680A43DA607B681B682A
:100E90001B699B0099087B685A687B681B680A433A
:100EA0001A617B681B68DA687B681B6864490A40C2
:100EB000DA607B681B7E9A037B685B7EDB031A43E8
:100EC0007B689B7E5B031A437B689B6A012B02D085
:100ED00080235B0100E000231A437B68DB681A4330
:100EE0007B681B69022B01D1042300E000231A4315
:100EF0007B6824215B5C5B001343BA681343BB60CF
:100F00007B68DB7E012B15D17B689B7E002B05D196
:100F1000BB68802252021343BB600BE07B689B6B73
:100F200020221A437B689A637B68DB6B01221A4399
:100F30007B68DA637B68DA69C223FF339A4207D0A1
:100F40007B68DA697B681B6A1343BA681343BB602A
:100F50007B681B68D9687B681B68BA680A43DA60DB
:100F60007B68DA6A80235B059A421BD07B68DB6A68
:100F7000012B17D07B68DB6A022B13D07B68DB6AFE
:100F8000032B0FD07B68DB6A042B0BD07B68DB6AFA
:100F9000052B07D07B68DB6A062B03D07B68DB6AF6
:100FA000072B12D17B681B685A697B681B68072175
:100FB0008A435A617B681B6859697B68DB6A072230
:100FC0001A407B681B680A435A617B681B68DB68B0
:100FD0001C4A1340BA689A420BD17B680022DA633C
:100FE0007B689B6B0322934301221A437B689A63BD
:100FF0001CE07B689B6B1222934310221A437B6890
:101000009A637B68DB6B01221A437B68DA630F23E8
:10101000FB1801221A7009E07B689B6B10221A43AF
:101020007B689A630F23FB1801221A700F23FB18A9
:101030001B781800BD4604B080BDC046FDFEFFFF12
:101040001902FEFFE7FF3F8390B587B000AFF8605D
:10105000B9607A601723FB1800221A70FB681B68BE
:101060009B68042213405ED1FB6834229B5C012BF9
:1010700001D102235EE0FB68342201219954FB6810
:101080005B7E012B07D01723FC18FB68180000F0CB
:101090006BF9030023701723FB181B78002B46D134
:1010A000FB689B6B254A1340802252001A43FB6861
:1010B0009A63FB680022DA63FB68342200219954AA
:1010C000FB681B6B1E4A9A62FB681B6B1D4ADA6247
:1010D000FB681B6B1C4A1A63FB681B681C221A60A6
:1010E000FB681B685A68FB681B6810210A435A603A
:1010F000FB681B68DA68FB681B6801210A43DA6039
:10110000FB68186BFB681B6840331900BA687B6882
:1011100000F058FBFB681B689A68FB681B68042199
:101120000A439A6003E01723FB1802221A70172360
:10113000FB181B781800BD4607B090BDFEF0FFFFFE
:1011400071140008251500084315000880B582B009
:1011500000AF7860C046BD4602B080BD80B582B0A9
:1011600000AF7860C046BD4602B080BD80B582B099
:1011700000AF7860C046BD4602B080BD80B584B087
:1011800000AF786039600F23FB1800221A7000232B
:10119000BB607B68DA6A80235B059A4211D07B686A
:1011A000DB6A012B0DD07B68DB6A022B09D07B68E0
:1011B000DB6A032B05D07B68DB6A042B01D07B68DC
:1011C000DB6A7B6834229B5C012B01D10223BBE0EC
:1011D0007B683422012199547B681B689B68042238
:1011E000134000D09FE03B685B68594A934200D1AE
:1011F00077E07B681B68996A3B681B6801229A400C
:101200007B681B680A439A627B68DA6A80235B0505
:101210009A4237D07B68DB6A012B33D07B68DB6A6C
:10122000022B2FD07B68DB6A032B2BD07B68DB6A19
:10123000042B27D07B68DB6A052B23D07B68DB6A15
:10124000062B1FD07B68DB6A072B1BD03B689A6894
:101250007B681B685B6907210B409A4212D07B6850
:101260001B685A697B681B6807218A435A617B683F
:101270001B6859693B689B6807221A407B681B689A
:101280000A435A613B681B68102B03D03B681B68FC
:10129000112B52D12F4B19683B681B68102B02D1C0
:1012A00080231B0401E08023DB032A4A0B431360E5
:1012B0003B681B68102B40D1274B1B68274918003F
:1012C000FEF722FF03001A0013009B009B185B002F
:1012D000BB6002E0BB68013BBB60BB68002BF9D17F
:1012E0002BE07B681B689A6A3B681B680121994068
:1012F0000B00D9437B681B680A409A623B681B68F5
:10130000102B03D03B681B68112B16D1114B1968A9
:101310003B681B68102B01D1114A00E0114A0D4BAC
:101320000A401A6009E07B689B6B20221A437B68A5
:101330009A630F23FB1801221A707B683422002164
:1013400099540F23FB181B781800BD4604B080BDCC
:1013500001100000082701400800002040420F0053
:10136000FFFF7FFFFFFFBFFF80B584B000AF786055
:101370000023FB600023BB607B681B689B68032223
:101380001340012B12D17B681B681B68012213409C
:10139000012B09D07B681B68DA6880231B021A4086
:1013A00080231B029A4201D1012300E00023002B7D
:1013B00052D17B681B689B682A4A13400DD07B681A
:1013C0009B6B10221A437B689A637B68DB6B01225C
:1013D0001A437B68DA6301233FE07B681B689A68E5
:1013E0007B681B6801210A439A601F4B1B681F49D9
:1013F0001800FEF789FE0300BB6002E0BB68013BFA
:10140000BB60BB68002BF9D1FFF7B0FC0300FB60A9
:101410001BE0FFF7ABFC0200FB68D31A022B14D9C8
:101420007B681B681B6801221340012B0DD07B6871
:101430009B6B10221A437B689A637B68DB6B0122EB
:101440001A437B68DA63012307E07B681B681B682B
:1014500001221340012BDCD100231800BD4604B04B
:1014600080BDC046170000800800002040420F00E9
:1014700080B584B000AF78607B685B6AFB60FB6816
:101480009B6B5022134040D1FB689B6B80229200E3
:101490001A43FB689A63FB681B68DA68C0231B0168
:1014A00013402DD1FB689B7E002B29D1FB681B6864
:1014B0001B6808221340082B22D1FB681B689B681D
:1014C0000422134010D1FB681B685A68FB681B6834
:1014D0000C218A435A60FB689B6B114A134001221E
:1014E0001A43FB689A630BE0FB689B6B20221A434C
:1014F000FB689A63FB68DB6B01221A43FB68DA63C3
:10150000FB681800FFF722FE05E0FB681B6B1B6BF6
:101510007A6810009847C046BD4604B080BDC046FA
:10152000FEFEFFFF80B584B000AF78607B685B6A29
:10153000FB60FB681800FFF711FEC046BD4604B013
:1015400080BD80B584B000AF78607B685B6AFB606B
:10155000FB689B6B40221A43FB689A63FB68DB6B5A
:1015600004221A43FB68DA63FB681800FFF7FEFDEC
:10157000C046BD4604B080BD80B582B000AF020059
:10158000FB1D1A70FB1D1B787F2B09D8FB1D1B78D8
:101590001A001F231A40044B012191400A001A60CF
:1015A000C046BD4602B080BD00E100E090B583B00A
:1015B00000AF02003960FB1D1A70FB1D1B787F2BEA
:1015C00028D82F4AFB1D1B785BB29B08C0339B00B9
:1015D0009B58FA1D1278110003220A40D200FF2105
:1015E00091400A00D2431A4011003B689B01FF2240
:1015F0001A40FB1D1B78180003230340DB009A40B0
:101600001F48FB1D1B785BB29B080A43C0339B003D
:101610001A5031E01B4AFB1D1B7819000F230B40A9
:10162000083B9B0806339B00D31804331B68FA1D44
:101630001278110003220A40D200FF2191400A00D3
:10164000D2431A4011003B689B01FF221A40FB1D48
:101650001B78180003230340DB009A400948FB1D58
:101660001B781C000F232340083B9B080A430633CA
:101670009B00C31804331A60C046BD4603B090BD3A
:1016800000E100E000ED00E080B582B000AF7860DE
:101690007B685A1E80235B049A4201D3012310E029
:1016A0000A4B7A68013A5A6001235B420321180011
:1016B000FFF77CFF054B00229A60044B07221A605B
:1016C00000231800BD4602B080BDC04610E000E017
:1016D00080B584B000AFB9607A600F217B18021C1E
:1016E0001A70BA687B181B785BB211001800FFF7FC
:1016F0005DFFC046BD4604B080BD80B582B000AF7E
:101700000200FB1D1A70FB1D1B785BB21800FFF76F
:1017100033FFC046BD4602B080BD80B582B000AF89
:1017200078607B681800FFF7AFFF03001800BD4624
:1017300002B080BD80B584B000AF78600023FB604C
:101740007B68002B01D1012336E07B682122022136
:1017500099547B681B681B68FB60FB68184A134040
:10176000FB607B685A687B689B681A437B68DB6810
:101770001A437B681B691A437B685B691A437B6861
:101780009B691A437B68DB691343FA681343FB6068
:101790007B681B68FA681A607B68180000F046F9DD
:1017A0007B6800229A637B682122012199547B681F
:1017B00020220021995400231800BD4604B080BDAA
:1017C0000FC0FFFF80B586B000AFF860B9607A60E7
:1017D0003B601723FB1800221A70FB6820229B5CD9
:1017E000012B01D102234FE0FB68202201219954F3
:1017F000FB6821229B5CDBB2012B3AD1FB682122E2
:1018000002219954FB6800229A63FB681B681A68DE
:10181000FB681B6801218A431A603B687A68B968D3
:10182000F86800F0D7F8FB68DB6A002B08D0FB688B
:101830001B681A68FB681B680E210A431A600FE0D8
:10184000FB681B681A68FB681B680A210A431A6058
:10185000FB681B681A68FB681B6804218A431A60CE
:10186000FB681B681A68FB681B6801210A431A6041
:1018700007E0FB682022002199541723FB1802225D
:101880001A701723FB181B781800BD4606B080BDE0
:1018900080B584B000AF78607B68DB6B1B68FB6051
:1018A0007B681B681B68BB607B681B6C04229A40CA
:1018B0001300FA68134024D0BB680422134020D0E0
:1018C0007B681B681B682022134007D17B681B685C
:1018D0001A687B681B6804218A431A607B681A6C4B
:1018E0007B68DB6B042191400A005A607B68DB6AED
:1018F000002B00D16AE07B68DB6A7A6810009847A9
:1019000064E07B681B6C02229A401300FA68134063
:101910002BD0BB680222134027D07B681B681B6852
:10192000202213400BD17B681B681A687B681B68F8
:101930000A218A431A607B682122012199547B681D
:101940001A6C7B68DB6B022191400A005A607B684D
:101950002022002199547B689B6A002B36D07B683B
:101960009B6A7A681000984730E07B681B6C0822FD
:101970009A401300FA68134028D0BB68082213402D
:1019800024D07B681B681A687B681B680E218A4319
:101990001A607B681A6C7B68DB6B012191400A003E
:1019A0005A607B6801229A637B6821220121995445
:1019B0007B682022002199547B681B6B002B05D08B
:1019C0007B681B6B7A6810009847FFE7C046BD46EE
:1019D00004B080BD80B584B000AFF860B9607A60B3
:1019E0003B60FB681A6CFB68DB6B012191400A00CD
:1019F0005A60FB681B683A685A60FB685B68102B8A
:101A000008D1FB681B687A689A60FB681B68BA6833
:101A1000DA6007E0FB681B68BA689A60FB681B68BD
:101A20007A68DA60C046BD4604B080BD80B582B039
:101A300000AF78607B681B68084A944663441421B1
:101A40001800FEF761FB03009A007B681A647B684C
:101A5000034ADA63C046BD4602B080BDF8FFFDBF51
:101A60000000024080B586B000AF78603960002386
:101A70007B614FE13B681B6801217A6991400A0054
:101A80001340FB60FB68002B00D140E13B685B68C2
:101A900003221340012B05D03B685B6803221340EF
:101AA000022B30D17B689B683B617B695B00032222
:101AB0009A401300DA433B6913403B613B68DA68A4
:101AC0007B695B009A4013003A6913433B617B6872
:101AD0003A699A607B685B683B6101227B699A4046
:101AE0001300DA433B6913403B613B685B681B09A9
:101AF00001221A407B699A4013003A6913433B6103
:101B00007B683A695A603B685B6803221340032B89
:101B100017D07B68DB683B617B695B0003229A40DE
:101B20001300DA433B6913403B613B689A687B6969
:101B30005B009A4013003A6913433B617B683A6942
:101B4000DA603B685B6803221340022B23D17B6978
:101B5000DA087B6808329200D3583B617B69072220
:101B600013409B000F229A401300DA433B69134055
:101B70003B613B681A697B6907210B409B009A40D7
:101B800013003A6913433B617B69DA087B680832CA
:101B900092003969D1507B681B683B617B695B00AF
:101BA00003229A401300DA433B6913403B613B68D0
:101BB0005B6803221A407B695B009A4013003A6914
:101BC00013433B617B683A691A603B685A68C023DB
:101BD0009B02134000D19AE0544B9A69534B012168
:101BE0000A439A61514B9B6901221340BB60BB6859
:101BF0004F4A7B699B0802339B009B583B617B6982
:101C0000032213409B000F229A401300DA433B69E2
:101C100013403B617A689023DB059A4213D07B68BE
:101C2000444A93420DD07B68434A934207D07B6875
:101C3000424A934201D1032306E0052304E0022334
:101C400002E0012300E000237A6903210A409200A8
:101C500093403A6913433B6135497B699B080233E2
:101C60009B003A695A50364B9B683B61FB68DA43EC
:101C70003B6913403B613B685A6880235B03134018
:101C800003D03A69FB6813433B612D4B3A699A6074
:101C90002B4BDB683B61FB68DA433B6913403B61DC
:101CA0003B685A6880239B03134003D03A69FB6862
:101CB00013433B61224B3A69DA60214B5B683B611D
:101CC000FB68DA433B6913403B613B685A688023F9
:101CD0009B02134003D03A69FB6813433B61184BE6
:101CE0003A695A60164B1B683B61FB68DA433B69F3
:101CF00013403B613B685A6880235B02134003D06A
:101D00003A69FB6813433B610D4B3A691A607B6982
:101D100001337B613B681A687B69DA40131E00D08F
:101D2000A8E6C046C046BD4606B080BD00100240D1
:101D3000000001400004004800080048000C004872
:101D40000004014080B582B000AF78600800110047
:101D5000BB1C021C1A807B1C0A1C1A707B1C1B7883
:101D6000002B04D0BB1C1A887B689A6103E0BB1C63
:101D70001A887B689A62C046BD4602B080BD0000EA
:101D800080B588B000AF78607B68002B01D101235B
:101D900005E37B681B680122134000D18DE0C54B31
:101DA0005B680C221340042B0ED0C24B5B680C22E4
:101DB0001340082B16D1BF4B5A68C0235B021A4050
:101DC00080235B029A420DD1BA4B1A6880239B0292
:101DD000134000D170E07B685B68002B00D06BE0A3
:101DE0000123DCE27B685B68012B07D1B14B1A68E9
:101DF000B04B802149020A431A602FE07B685B6880
:101E0000002B0CD1AB4B1A68AA4BAB490A401A60A5
:101E1000A84B1A68A74BA9490A401A601EE07B68C4
:101E20005B68052B0ED1A34B1A68A24B8021C90217
:101E30000A431A609F4B1A689E4B802149020A434D
:101E40001A600BE09B4B1A689A4B9B490A401A6038
:101E5000984B1A68974B99490A401A607B685B68EF
:101E6000002B14D0FEF782FF0300BB6108E0FEF7F1
:101E70007DFF0200BB69D31A642B01D903238EE2D4
:101E80008C4B1A6880239B021340F0D015E0FEF7BC
:101E90006DFF0300BB6108E0FEF768FF0200BB694D
:101EA000D31A642B01D9032379E2824B1A68802369
:101EB0009B021340F0D100E0C0467B681B68022201
:101EC000134000D16CE07B4B5B680C2213400ED0BA
:101ED000784B5B680C221340082B1FD1754B5A6856
:101EE000C0235B021A4080231B029A4216D1714B19
:101EF0001B680222134005D07B68DB68012B01D0F0
:101F000001234CE26B4B1B68F822934319007B685A
:101F10001B69DA00674B0A431A6041E07B68DB68A3
:101F2000002B24D0634B1A68624B01210A431A60CC
:101F3000FEF71CFF0300BB6108E0FEF717FF02007D
:101F4000BB69D31A022B01D9032328E2594B1B6822
:101F500002221340F1D0574B1B68F822934319001B
:101F60007B681B69DA00534B0A431A6018E0514B37
:101F70001A68504B01218A431A60FEF7F7FE0300EE
:101F8000BB6108E0FEF7F2FE0200BB69D31A022B28
:101F900001D9032303E2474B1B6802221340F1D10E
:101FA0007B681B680822134036D07B68DB69002BF6
:101FB00019D0404B5A6A3F4B01210A435A62FEF73F
:101FC000D5FE0300BB6108E0FEF7D0FE0200BB694E
:101FD000D31A022B01D90323E1E1364B5B6A0222BB
:101FE0001340F1D018E0334B5A6A324B01218A4337
:101FF0005A62FEF7BBFE0300BB6108E0FEF7B6FEC7
:102000000200BB69D31A022B01D90323C7E1294B74
:102010005B6A02221340F1D17B681B6804221340E3
:1020200000D1B5E01F203B1800221A70214BDA695D
:1020300080235B05134010D11E4BDA691D4B8021B4
:1020400049050A43DA611B4BDA6980235B051340BB
:10205000FB60FB683B1801221A70194B1A68802339
:102060005B0013401AD1164B1A68154B80214900AA
:102070000A431A60FEF77AFE0300BB6108E0FEF730
:1020800075FE0200BB69D31A642B01D9032386E1D4
:102090000B4B1A6880235B001340F0D07B689B6871
:1020A000012B0FD1034B1A6A024B01210A431A621A
:1020B00036E0C04600100240FFFFFEFFFFFFFBFFBF
:1020C000007000407B689B68002B0CD1B64B1A6AED
:1020D000B54B01218A431A62B34B1A6AB24B0421F1
:1020E0008A431A621CE07B689B68052B0CD1AE4BBF
:1020F0001A6AAD4B04210A431A62AB4B1A6AAA4B07
:1021000001210A431A620BE0A74B1A6AA64B012170
:102110008A431A62A44B1A6AA34B04218A431A62A7
:102120007B689B68002B14D0FEF720FE0300BB6188
:1021300009E0FEF71BFE0200BB69D31A9B4A9342DB
:1021400001D903232BE1984B1B6A02221340F0D0E4
:1021500013E0FEF70BFE0300BB6109E0FEF706FE8D
:102160000200BB69D31A914A934201D9032316E1B5
:102170008D4B1B6A02221340F0D11F23FB181B78E2
:10218000012B05D1884BDA69874B89490A40DA610E
:102190007B681B681022134063D07B685B69012B4E
:1021A0002AD1814B5A6B804B04210A435A637E4BE0
:1021B0005A6B7D4B01210A435A63FEF7D7FD03009A
:1021C000BB6108E0FEF7D2FD0200BB69D31A022B07
:1021D00001D90323E3E0744B5B6B02221340F1D07F
:1021E000714B5B6BF822934319007B689B69DA00A3
:1021F0006D4B0A435A6334E07B685B69053311D148
:10220000694B5A6B684B04218A435A63664B5B6B7C
:10221000F822934319007B689B69DA00624B0A43FA
:102220005A631EE0604B5A6B5F4B04210A435A63AA
:102230005D4B5A6B5C4B01218A435A63FEF796FD56
:102240000300BB6108E0FEF791FD0200BB69D31AF1
:10225000022B01D90323A2E0534B5B6B02221340F4
:10226000F1D17B681B6A002B00D197E04E4B5B6875
:102270000C221340082B00D16BE07B681B6A022BF9
:102280004CD1494B1A68484B4A490A401A60FEF73C
:102290006DFD0300BB6108E0FEF768FD0200BB694D
:1022A000D31A022B01D9032379E03F4B1A6880230C
:1022B0009B041340F0D13C4BDB6A0F22934319007F
:1022C0007B68DA6A384B0A43DA62374B5B683A4A12
:1022D000134019007B689A6A7B685B6A1A43324B29
:1022E0000A435A60304B1A682F4B802149040A4335
:1022F0001A60FEF73BFD0300BB6108E0FEF736FD08
:102300000200BB69D31A022B01D9032347E0264BF5
:102310001A6880239B041340F0D03FE0224B1A68D8
:10232000214B24490A401A60FEF720FD0300BB61DF
:1023300008E0FEF71BFD0200BB69D31A022B01D98E
:1023400003232CE0184B1A6880239B041340F0D120
:1023500024E07B681B6A012B01D101231FE0124B93
:102360005B687B61104BDB6A3B617A69C0235B026F
:102370001A407B685B6A9A420ED13B690F221A4071
:102380007B68DB6A9A4207D17A69F0239B031A4083
:102390007B689B6A9A4201D0012300E00023180069
:1023A000BD4608B080BDC046001002408813000042
:1023B000FFFFFFEFFFFFFFFEFF7FC2FF80B584B08E
:1023C00000AF786039607B68002B01D10123B3E056
:1023D0005B4B1B68012213403A689A4211D9584B53
:1023E0001B68012293431900554B3A680A431A604F
:1023F000534B1B68012213403A689A4201D00123D3
:102400009AE07B681B680222134015D07B681B682A
:102410000422134006D04B4B5A684A4BE021C900B6
:102420000A435A60474B5B68F022934319007B686C
:102430009A68444B0A435A607B681B680122134028
:1024400040D07B685B68012B07D13E4B1A68802324
:102450009B02134014D101236EE07B685B68022B62
:1024600007D1384B1A6880239B04134008D10123FD
:1024700062E0344B1B680222134001D101235BE070
:10248000304B5B680322934319007B685A682D4BDD
:102490000A435A60FEF76AFC0300FB6009E0FEF79E
:1024A00065FC0200FB68D31A274A934201D9032333
:1024B00042E0244B5B680C221A407B685B689B00FF
:1024C0009A42ECD11E4B1B68012213403A689A4293
:1024D00011D21B4B1B68012293431900184B3A6819
:1024E0000A431A60164B1B68012213403A689A424D
:1024F00001D0012320E07B681B680422134009D02F
:10250000104B5B68114A134019007B68DA680D4B69
:102510000A435A6000F020F801000A4B5B681B096F
:102520000F2213400A4AD35C0A00DA40094B1A60B2
:102530000320FEF7D5FB00231800BD4604B080BD84
:10254000002002400010024088130000FFF8FFFF47
:10255000CC3400080800002080B586B000AF00230E
:10256000FB600023BB6000237B6100237B600023B2
:102570003B61214B5B68FB60FB680C221340042B22
:1025800002D0082B03D02EE01C4B3B612EE0FB68F1
:102590009B0C0F2213401A4AD35C7B60164BDB6AFC
:1025A0000F221340174AD35CBB60FA68C0235B025A
:1025B0001A4080235B029A4209D1B9680F48FDF79F
:1025C000A3FD03001A007B6853437B6108E0B968F0
:1025D0000D48FDF799FD03001A007B6853437B61AA
:1025E0007B693B6102E0084B3B61C0463B691800D8
:1025F000BD4606B080BDC046001002400024F40075
:10260000DC340008EC34000800127A0080B584B095
:1026100000AF78607B68002B01D10123A8E07B68C4
:102620005B6A002B09D17B685A6882235B009A425F
:1026300009D07B680022DA6105E07B6800221A611C
:102640007B6800225A617B6800229A627B685D2267
:102650009B5CDBB2002B07D17B685C220021995484
:102660007B681800FEF770FA7B685D22022199549E
:102670007B681B681A687B681B6840218A431A6064
:102680007B68DA68E023DB009A4202D90023FB6012
:1026900002E080235B01FB607B68DA68F0231B01AA
:1026A0009A4208D07B68DA68E023DB009A4202D0C5
:1026B0007B6800229A627B685A6882235B001A401A
:1026C0007B68996884231B020B401A437B681B6953
:1026D00002210B401A437B685B6901210B401A43BE
:1026E0007B68996980239B000B401A437B68DB69F8
:1026F00038210B401A437B681B6A80210B401A4328
:1027000011007B689A6A80239B011A407B681B68D2
:102710000A431A607B689B691B0C04221A407B6881
:102720005B6A10210B401A437B685B6B08210B40EE
:102730001A437B68D968F0231B010B401A43110030
:10274000FA6880235B011A407B681B680A435A6061
:102750007B681B68DA697B681B6807490A40DA6195
:102760007B6800221A667B685D2201219954002350
:102770001800BD4604B080BDFFF7FFFF80B588B0EC
:1027800000AFF860B9603B60BB1D1A801F23FB18C7
:1027900000221A70FB685C229B5C012B01D1022392
:1027A00047E1FB685C2201219954FEF7DFFA030040
:1027B000BB611623FB18BA1D12881A80FB685D22C4
:1027C0009B5CDBB2012B04D01F23FB1802221A7082
:1027D00028E1BB68002B03D0BB1D1B88002B04D154
:1027E0001F23FB1801221A701CE1FB685D220321E4
:1027F0009954FB6800221A66FB68BA689A63FB6802
:10280000BA1D12889A87FB68BA1D1288DA87FB689E
:1028100000221A64FB68442200219952FB68462278
:1028200000219952FB6800221A65FB680022DA64D5
:10283000FB689A6880231B029A4210D1FB681B68D0
:102840001A68FB681B6840218A431A60FB681B6892
:102850001A68FB681B688021C9010A431A60FB687B
:102860001B681B6840221340402B07D0FB681B6885
:102870001A68FB681B6840210A431A60FB68DA6823
:10288000E023DB009A4252D9FB685B68002B04D03E
:102890001623FB181B88012B43D1FB689B6B1A88FE
:1028A000FB681B68DA60FB689B6B9A1CFB689A6389
:1028B000FB68DB8F9BB2013B9AB2FB68DA8730E0A2
:1028C000FB681B689B6802221340022B12D1FB6835
:1028D0009B6B1A88FB681B68DA60FB689B6B9A1C11
:1028E000FB689A63FB68DB8F9BB2013B9AB2FB6883
:1028F000DA8716E0FEF73AFA0200BB69D31A3A68A3
:102900009A4202D83B68013302D13B68002B08D1C0
:102910001F23FB1803221A70FB685D2201219954C2
:1029200080E0FB68DB8F9BB2002BC9D153E0FB68D2
:102930005B68002B04D01623FB181B88012B45D1A4
:10294000FB689A6BFB681B680C3312781A70FB6883
:102950009B6B5A1CFB689A63FB68DB8F9BB2013B45
:102960009AB2FB68DA8731E0FB681B689B68022239
:102970001340022B13D1FB689A6BFB681B680C3366
:1029800012781A70FB689B6B5A1CFB689A63FB6891
:10299000DB8F9BB2013B9AB2FB68DA8716E0FEF749
:1029A000E5F90200BB69D31A3A689A4202D83B683B
:1029B000013302D13B68002B08D11F23FB180322EF
:1029C0001A70FB685D22012199542BE0FB68DB8FB4
:1029D0009BB2002BC8D1BA693968FB68180000F0B7
:1029E000EFFC031E02D0FB6820221A66FB689B687E
:1029F000002B0AD100233B61FB681B68DB683B614D
:102A0000FB681B689B683B613B69FB681B6E002B86
:102A100004D01F23FB1801221A7003E0FB685D221B
:102A200001219954FB685C22002199541F23FB1853
:102A30001B781800BD4608B080BD000090B589B075
:102A400002AFF860B9603B60BB1D1A8017217B188C
:102A500000221A70FB685D229B5CDBB2012B03D065
:102A60007B1802221A702BE1FB685A6882235B00F4
:102A70009A4213D1FB689B68002B0FD1FB685D2243
:102A800004219954BB1D1C88BA68B968F8683B6872
:102A90000093230000F024F9030018E1FB685C2296
:102AA0009B5C012B01D1022311E1FB685C22012117
:102AB0009954FEF75BF903003B61BB68002B03D020
:102AC000BB1D1B88002B04D11723FB1801221A7091
:102AD000F6E0FB685D2204219954FB6800221A6627
:102AE000FB68BA681A64FB68BA1D442112885A52FE
:102AF000FB68BA1D462112885A52FB6800229A636D
:102B0000FB6800229A87FB680022DA87FB680022B4
:102B1000DA64FB6800221A65FB68DA68E023DB00F0
:102B20009A4208D9FB681B685A68FB681B686A49A7
:102B30000A405A6008E0FB681B685A68FB681B681B
:102B4000802149010A435A60FB689A6880231B026E
:102B50009A420FD1FB681B681A68FB681B6840210A
:102B60008A431A60FB681B681A68FB681B685B492C
:102B70000A401A60FB681B681B6840221340402B08
:102B800007D0FB681B681A68FB681B6840210A4372
:102B90001A60FB68DA68E023DB009A4200D971E032
:102BA00035E0FB681B689B6801221340012B17D19D
:102BB000FB681B680C331A00FB681B6C1278D2B2DE
:102BC0001A70FB681B6C5A1CFB681A64FB6846226F
:102BD0009B5A9BB2013B99B2FB684622995216E080
:102BE000FEF7C4F802003B69D31A3A689A4202D849
:102BF0003B68013302D13B68002B08D11723FB1837
:102C000003221A70FB685D220121995458E0FB6889
:102C100046229B5A9BB2002BC3D139E0FB681B684C
:102C20009B6801221340012B15D1FB681B68DA68F1
:102C3000FB681B6C92B21A80FB681B6C9A1CFB68C9
:102C40001A64FB6846229B5A9BB2013B99B2FB680F
:102C50004622995216E0FEF789F802003B69D31A22
:102C60003A689A4202D83B68013302D13B68002B94
:102C700008D11723FB1803221A70FB685D2201217B
:102C800099541DE0FB6846229B5A9BB2002BC5D18C
:102C90003A693968FB68180000F034FB031E02D063
:102CA000FB6820221A66FB681B6E002B04D01723DA
:102CB000FB1801221A7003E0FB685D220121995480
:102CC000FB685C22002199541723FB181B7818001D
:102CD000BD4607B090BDC046FFEFFFFFFFBFFFFF3F
:102CE00080B58AB000AFF860B9607A601A00BB1C8A
:102CF0001A8001237B622323FB1800221A70FB68D1
:102D00005C229B5C012B01D10223C4E1FB685C22A5
:102D100001219954FEF72AF80300FB611B203B18A0
:102D2000FA685D21525C1A70FB685B687B61122354
:102D3000FB18BA1C12881A803B181B78012B11D083
:102D40007A6982235B009A4207D1FB689B68002B5B
:102D500003D13B181B78042B04D02323FB18022239
:102D60001A7091E1BB68002B06D07B68002B03D062
:102D7000BB1C1B88002B04D12323FB1801221A70D3
:102D800082E1FB685D229B5CDBB2042B03D0FB6815
:102D90005D2205219954FB6800221A66FB687A6857
:102DA0001A64FB68BA1C462112885A52FB68BA1C86
:102DB000442112885A52FB68BA689A63FB68BA1CAD
:102DC0001288DA87FB68BA1C12889A87FB6800228F
:102DD000DA64FB6800221A65FB68DA68E023DB002E
:102DE0009A4208D9FB681B685A68FB681B68AC49A3
:102DF0000A405A6008E0FB681B685A68FB681B6859
:102E0000802149010A435A60FB681B681B68402205
:102E10001340402B07D0FB681B681A68FB681B68CF
:102E200040210A431A60FB68DA68E023DB009A421B
:102E300000D883E0FB685B68002B05D01223FB18E9
:102E40001B88012B00D06DE0FB689B6B1A88FB6828
:102E50001B68DA60FB689B6B9A1CFB689A63FB68D3
:102E6000DB8F9BB2013B9AB2FB68DA875AE0FB68C2
:102E70001B689B6802221340022B1BD1FB68DB8F6F
:102E80009BB2002B16D07B6A012B13D1FB689B6B86
:102E90001A88FB681B68DA60FB689B6B9A1CFB68EE
:102EA0009A63FB68DB8F9BB2013B9AB2FB68DA87BF
:102EB00000237B62FB681B689B6801221340012B87
:102EC0001CD1FB6846229B5A9BB2002B16D0FB6894
:102ED0001B68DA68FB681B6C92B21A80FB681B6C7B
:102EE0009A1CFB681A64FB6846229B5A9BB2013B02
:102EF00099B2FB684622995201237B62FDF736FFA7
:102F00000200FB69D31A3A6B9A420BD83B6B013330
:102F100008D02323FB1803221A70FB685D220121CD
:102F20009954B1E0FB68DB8F9BB2002B9FD1FB680B
:102F300046229B5A9BB2002B99D189E0FB685B68C3
:102F4000002B05D01223FB181B88012B00D074E046
:102F5000FB689A6BFB681B680C3312781A70FB686D
:102F60009B6B5A1CFB689A63FB68DB8F9BB2013B2F
:102F70009AB2FB68DA8760E0FB681B689B680222F4
:102F80001340022B1CD1FB68DB8F9BB2002B17D0A8
:102F90007B6A012B14D1FB689A6BFB681B680C33AE
:102FA00012781A70FB689B6B5A1CFB689A63FB686B
:102FB000DB8F9BB2013B9AB2FB68DA8700237B620E
:102FC000FB681B689B6801221340012B1ED1FB6824
:102FD00046229B5A9BB2002B18D0FB681B680C330F
:102FE0001A00FB681B6C1278D2B21A70FB681B6C5B
:102FF0005A1CFB681A64FB6846229B5A9BB2013B31
:1030000099B2FB684622995201237B62FDF7AEFE1E
:103010000200FB69D31A3A6B9A4202D83B6B013328
:1030200002D13B6B002B08D12323FB1803221A701B
:10303000FB685D220121995426E0FB68DB8F9BB27F
:10304000002B99D1FB6846229B5A9BB2002B93D14F
:10305000FA69396BFB68180000F0B2F9031E06D05C
:103060002323FB1801221A70FB6820221A66FB68D2
:103070001B6E002B04D02323FB1801221A7003E0DF
:10308000FB685D2201219954FB685C220021995460
:103090002323FB181B781800BD460AB080BDC0462C
:1030A000FFEFFFFF80B588B000AFF860B9603B600C
:1030B000FB1D1A70FDF75AFE0200BB6A9B1A3A68A4
:1030C000D318FB61FDF752FE0300BB613A4B1B684E
:1030D0005B011B0DFA6953437B6158E03B68013388
:1030E00055D0FDF743FE0200BB69D31AFA699A4234
:1030F00002D9FB69002B42D1FB681B685A68FB6848
:103100001B68E0218A435A60FB685A6882235B008F
:103110009A4213D1FB689A6880231B029A4205D019
:10312000FB689A688023DB009A4207D1FB681B6822
:103130001A68FB681B6840218A431A60FB689A6A18
:1031400080239B019A4210D1FB681B681A68FB68B8
:103150001B681A490A401A60FB681B681A68FB68FA
:103160001B68802189010A431A60FB685D220121E6
:103170009954FB685C2200219954032317E07B6972
:10318000002B01D10023FB617B69013B7B61FB6864
:103190001B689B68BA681340BA68D31A5A425341F5
:1031A000DBB21A00FB1D1B789A4297D1002318004E
:1031B000BD4608B080BDC04608000020FFDFFFFF0D
:1031C00080B58AB000AFF860B9607A603B601723C1
:1031D000FB1800221A70FDF7C9FD02003B6B9B1A19
:1031E0003A68D3187B62FDF7C1FD03003B62FB68C0
:1031F0001B680C33FB61414B1A6813009B009B1842
:10320000DA00D31A1B0D7A6A5343BB6168E0BA68CF
:10321000C023DB009A420AD17B68002B07D1FB69EF
:103220001B78DAB217217B181A707B181B783B6861
:10323000013355D0FDF79AFD02003B6AD31A7A6A32
:103240009A4202D97B6A002B42D1FB681B685A68FC
:10325000FB681B68E0218A435A60FB685A68822336
:103260005B009A4213D1FB689A6880231B029A4242
:1032700005D0FB689A688023DB009A4207D1FB687F
:103280001B681A68FB681B6840218A431A60FB6848
:103290009A6A80239B019A4210D1FB681B681A68C6
:1032A000FB681B6816490A401A60FB681B681A68AD
:1032B000FB681B68802189010A431A60FB685D2254
:1032C00001219954FB685C2200219954032310E0EA
:1032D000BB69002B01D100237B62BB69013BBB6151
:1032E000FB681B689B68BA6813407A689A428ED163
:1032F00000231800BD460AB080BDC046080000206B
:10330000FFDFFFFF80B586B002AFF860B9607A607A
:10331000FB685A6882235B009A4213D1FB689A6863
:1033200080231B029A4205D0FB689A688023DB0049
:103330009A4207D1FB681B681A68FB681B6840212A
:103340008A431A60BA68F8687B6800931300002209
:103350008021FFF7A7FE031E07D0FB681B6E20220B
:103360001A43FB681A66032326E0FB685A68822327
:103370005B009A421FD1FB689A6880231B029A4225
:1033800005D0FB689A688023DB009A4213D1BA68A3
:10339000C023D900F8687B68009313000022FFF770
:1033A0000FFF031E07D0FB681B6E20221A43FB6829
:1033B0001A66032300E000231800BD4604B080BD58
:1033C00080B586B002AFF860B9607A60BA68C02391
:1033D0005901F8687B68009313000022FFF7F0FEA4
:1033E000031E07D0FB681B6E20221A43FB681A6677
:1033F000032327E0BA68F8687B6800931300002273
:103400008021FFF74FFE031E07D0FB681B6E2022B2
:103410001A43FB681A66032314E0BA68C023D90074
:10342000F8687B68009313000022FFF7C9FE031EB3
:1034300007D0FB681B6E20221A43FB681A66032321
:1034400000E000231800BD4604B080BD70B5002622
:103450000C4D0D4C641BA410A64209D1002600F0AF
:1034600021F80A4D0A4C641BA410A64205D170BD78
:10347000B300EB5898470136EEE7B300EB58984796
:103480000136F2E7FC340008FC340008FC34000884
:103490000035000803008218934200D1704719706C
:1034A0000133F9E7F8B5C046F8BC08BC9E46704742
:0C34B000F8B5C046F8BC08BC9E4670474A
:1034BC00E7E7E7E7E7000000C2C2C2C2C2000000B3
:1034CC0000000000000000000102030406070809C8
:1034DC0002030405060708090A0B0C0D0E0F101049
:1034EC000102030405060708090A0B0C0D0E0F1048
:0434FC00E9000008DB
:04350000C1000008FE
:10350400EEDDCCBBAA00000000127A00040000002B
:0435140001000000B2
:0400000508000C35AE
:00000001FF
